:020000040800F2
:1000000000000220E929000821120008231200083C
:10001000251200082712000829120008000000001D
:100020000000000000000000000000002B1200088B
:100030002D120008000000002F120008910E000889
:10004000392A0008392A0008392A0008392A000804
:10005000392A0008392A0008392A0008392A0008F4
:10006000392A0008392A0008392A0008392A0008E4
:10007000392A0008392A0008392A0008392A0008D4
:10008000392A0008392A0008392A0008392A0008C4
:10009000392A0008392A0008392A0008392A0008B4
:1000A000392A0008110D0008392A0008392A0008E9
:1000B000392A0008392A0008392A0008392A000894
:1000C000392A0008392A0008392A0008392A000884
:1000D000392A0008392A0008392A0008392A000874
:1000E000392A0008392A0008392A0008392A000864
:1000F000392A0008392A0008392A0008392A000854
:10010000392A0008392A0008392A0008392A000843
:10011000392A0008392A0008392A0008392A000833
:10012000392A0008392A0008F10C0008392A000889
:10013000392A0008392A0008392A0008392A000813
:10014000392A0008392A0008392A0008392A000803
:10015000392A0008392A0008392A0008392A0008F3
:10016000392A0008392A0008392A0008392A0008E3
:10017000392A0008392A0008392A0008000000003E
:08018000392A0008392A0008A1
:1001880053B94AB9002908BF00281CBF4FF0FF31F6
:100198004FF0FF3000F0E2B8ADF1080C6DE904CE85
:1001A80002F034FDDDF804E0DDE9022304B0704715
:1001B80000F1340191E838009C46A6464CF8045DED
:1001C80090E8FF0FE54600BD90EC210B704700BF9B
:1001D80080EC210B704700BF90EC200B704700BFEC
:1001E80080EC200B704700BFD0EC200B704700BF9D
:1001F800C0EC200B704700BFF0EC0201F0EC0211DC
:10020800F0EC0221F0EC0231F0EC0241F0EC02518A
:10021800F0EC0261F0EC0271F0EC0281F0EC02917A
:10022800F0EC02A1F0EC02B1F0EC02C1F0EC02D16A
:10023800F0EC02E1F0EC02F1704700BFE0EC0201E3
:10024800E0EC0211E0EC0221E0EC0231E0EC0241CA
:10025800E0EC0251E0EC0261E0EC0271E0EC0281BA
:10026800E0EC0291E0EC02A1E0EC02B1E0EC02C1AA
:10027800E0EC02D1E0EC02E1E0EC02F1704700BFF3
:10028800B0FC0181B0FC0191B0FC01A1B0FC01B14E
:10029800704700BFA0FC0181A0FC0191A0FC01A156
:1002A800A0FC01B1704700BFEC4600B52DE9005035
:1002B8002DE9FF1F4FF000032DE90C0001A902F002
:1002C8005FFFDDF840E012B0704700BFEC4600B5B4
:1002D8002DE900502DE9FF1F4FF000032DE90C0018
:1002E80001A902F089FFDDF840E012B0704700BFB5
:1002F800EC4600B52DE900502DE9FF1F4FF0000333
:100308002DE90C0001A902F099FFDDF840E012B0D8
:10031800704700BFEC4600B52DE900502DE9FF1FDE
:100328004FF000032DE90C0001AB02F05DFFDDF892
:1003380040E012B0704700BFEC4600B52DE9005010
:100348002DE9FF1F4FF000032DE90C0001AA02F070
:10035800C9FFDDF840E012B0704700BF704700BF2A
:10036800844641EA000313F003036DD1403A41D3B8
:1003780051F8043B40F8043B51F8043B40F8043B77
:1003880051F8043B40F8043B51F8043B40F8043B67
:1003980051F8043B40F8043B51F8043B40F8043B57
:1003A80051F8043B40F8043B51F8043B40F8043B47
:1003B80051F8043B40F8043B51F8043B40F8043B37
:1003C80051F8043B40F8043B51F8043B40F8043B27
:1003D80051F8043B40F8043B51F8043B40F8043B17
:1003E80051F8043B40F8043B51F8043B40F8043B07
:1003F800403ABDD2303211D351F8043B40F8043BA7
:1004080051F8043B40F8043B51F8043B40F8043BE6
:1004180051F8043B40F8043B103AEDD20C3205D3B6
:1004280051F8043B40F8043B043AF9D2043208D0AE
:10043800D2071CBF11F8013B00F8013B01D30B8820
:1004480003806046704700BF082A13D38B078DD0FE
:1004580010F003038AD0C3F10403D21ADB071CBFD0
:1004680011F8013B00F8013B80D331F8023B20F83A
:10047800023B7BE7043AD9D3013A11F8013B00F873
:10048800013BF9D20B7803704B7843708B788370FB
:100498006046704710B5054C237833B9044B13B147
:1004A8000448AFF300800123237010BD6C040020C2
:1004B80000000000343C000808B5034B1BB1034999
:1004C8000348AFF3008008BD00000000700400205E
:1004D800343C000801608280704710B4036802EB66
:1004E800420291F800C003F802C0531C91F801C001
:1004F800046804F803C003680232897899545DF8E7
:10050800044B704728B110F0010F04D001EBC00074
:10051800704788B27047C1EBC001083188B2704794
:100528002DE9F84F05460E46836893F800A0374B2F
:10053800A3FB0A3A4FEA9A0A4FF000095FE0E1B2DA
:100548003046FFF7DFFF024629692846FFF7C5FF57
:100558000134072C2DDC0123A3401F42EFD0E1B268
:100568003046FFF7CFFF0246E9682846FFF7B5FF98
:10057800EEE70024EDE75FFA8BF13046FFF7C2FFA4
:10058800024629692846FFF7A8FF0BF1FF3B013413
:10059800072C0EDC0123A3401F42ECD05FFA8BF13D
:1005A8003046FFF7AFFF0246E9682846FFF795FF98
:1005B800EBE70136F6B208F10108B8F1040F0CDCDC
:1005C8006B6909EB8902134413F8087016F0010FE0
:1005D800CFD000244FF0070BDAE7002409E0E1B29E
:1005E8003046FFF78FFF024629692846FFF775FF57
:1005F8000134072CF3DD0136F6B209F10109CA45C9
:1006080002DD4FF00008D8E7BDE8F88FABAAAAAA28
:10061800422807D0432807D0412801D0002070473E
:10062800024870470248704702487047000000209F
:10063800080000201000002038B50546144608467A
:10064800FFF7E6FF002306E0696904EB8402114422
:10065800C25CCA540133042BF6DD38BD82B00023D6
:100668000193019B0133019302B0704770B42E4E81
:10067800B45CF55C9DF80C30F25C01EB4101E4439D
:10068800ED43D243294B03EB011303F1614101F51B
:1006980080114E01830003EB4113E90946F820104D
:1006A800A90919646909C3F880102909C3F8C01099
:1006B800E908C3F80011A908C3F840116908C3F88C
:1006C8008011C3F8C051E109C3F80012A109C3F8A9
:1006D80040126109C3F880122109C3F8C012E10869
:1006E800C3F80013A108C3F840136108C3F88013C6
:1006F800C3F8C043D109C3F800149109C3F84014E2
:100708005109C3F880141109C3F8C014D108C3F8FB
:1007180000159108C3F840155108C3F88015C3F8AF
:10072800C02570BC704700BF4C3C00086C06002018
:1007380070B582B005688268531C8360AA5C5C1C33
:100748008460EB5C661C86602C5D4568AE4206D012
:10075800009489B2007BFFF789FF02B070BD0025C5
:100768008560F5E72F4B4FF400529A612E4B9B6B37
:10077800B3F5C06F02D010B5002448E000202A4B22
:1007880098632A4A136823F001031360284B1968F9
:100798000B6823F001030B60264B19680B6823F0E4
:1007A80001030B60244B19680B6823F001030B60ED
:1007B800224B1B68D96821F48071D960D96821F46B
:1007C8000071D960D96821F48061D9601C49096831
:1007D800D1625062012151616FF001011961D9683C
:1007E80041F00101D960136843F001031360154B10
:1007F8001A68154B9A610B4B4FF000529A6170477B
:100808000121094800EB0410FFF792FF0134022C84
:10081800F6D9054A936B01339363024B4FF00052AC
:100828009A6110BD000C0240300600200000014013
:1008380090050020D0040020300500208804002006
:100848002C0600201C0000200008024038B50025B6
:100858004F4B83F830500CE04D4C04EB051400214D
:10086800A1602046FFF764FF01212046FFF760FFE3
:100878000135022DF0D9474B1B68474A934245D9A9
:10088800583A4FF46061D160444A1068424A904235
:1008980052D9583A4FF46061D160414A11683E4AD2
:1008A80091425FD9583A4FF46014D46030225A60AC
:1008B80042604A603B490A686FF01F0010611A687D
:1008C80042F001021A60354B1A68136843F00103BD
:1008D8001360334B1A68136843F0010313600B6805
:1008E800DA6842F48072DA60DA6842F40072DA6038
:1008F800DA6842F48062DA602B4A1268013A2B49BE
:100908004A621A6842F001021A6038BD284A9342C6
:1009180005D902F552724FF460619160B4E7254A37
:10092800934204D9583A4FF46061D160ACE7224A47
:100938004FF460619160A7E71D4A904205D902F51E
:1009480052724FF460619160A7E71A4A904204D945
:10095800583A4FF46061D1609FE7174A4FF46061DD
:1009680091609AE7124A914205D902F552724FF402
:10097800601494609AE70F4A914204D9583A4FF4A8
:100988006014D46092E70C4A4FF4601494608DE7C9
:10099800300600209005002058640240D004002052
:1009A80030050020880400202806002000000140AF
:1009B800B8600240586002400060024010B582B042
:1009C8000E4B9B6BB3F5C06F01D000240EE00020E6
:1009D8000090034602460146FFF748FE0CE000215E
:1009E800064800EB0410FFF7A3FE0134022CF6D9E9
:1009F800024A936B0133936302B010BD30060020A6
:100A080070B588B000250195194C236B43F0040399
:100A18002363236B03F004030193019B0F230393C8
:100A2800012604960595069503A9124800F034FF9F
:100A38000295236B43F008032363236B03F0080339
:100A48000293029B04960595022306934FF40043F4
:100A58000393A4F5305403A9204600F01DFF4FF47A
:100A68000053039303A9204600F016FF08B070BD99
:100A780000380240000802402DE9F04F83B00025FD
:100A88000195464B1A6B42F480021A631B6B03F400
:100A980080030193019B424C4FF0400AC4F808A020
:100AA800E56025614FF4805363614FF4804BC4F8CF
:100AB80018B04FF48079C4F81C904FF44038C4F84B
:100AC80020804FF04067676065620326A662E56292
:100AD8002563344B2360204600F064FD204600F077
:100AE800FBFC3023304A3149204600F08DFD304C64
:100AF800C4F808A0E5604FF4806323614FF40063F5
:100B080063614FF40053A361C4F81C90C4F82080BB
:100B180067606562A662E5622563264B236020460E
:100B280000F040FD204600F0D7FC3023224A23493C
:100B3800204600F069FD224CC4F808A0E560256154
:100B48004FF480536361C4F818B0C4F81C90C4F81B
:100B5800208067606562A662E5622563194B2360A1
:100B6800204600F01FFD184BE363184B2364184B15
:100B7800E364204600F0B0FC2A4629463A2000F0FB
:100B8800D1FB3A2000F006FC3023074A11492046E1
:100B980000F05EFD03B0BDE8F08F00BF00380240F2
:100BA80090050020886402401808024018000020C0
:100BB800D0040020286402401A0802406C06002075
:100BC80030050020406402406D070008C509000890
:100BD800650600081C0000202DE9F04182B00024C1
:100BE8000194354B5A6C42F001025A645B6C03F075
:100BF80001030193019B314B1A68130A3049A1FB89
:100C080003131B092F490B602F49A1FB0212D20ABB
:100C18002E490A6003EB83014A002D49A1FB02011A
:100C2800CF082C49A1FB0212D6082B4D2B4A2A606B
:100C3800EB606C616C602C61AC60284601F06CFC68
:100C480022462146192000F06DFB192000F0A2FB76
:100C580023494FF06008C1F800808C604F60CC6079
:100C68000C612246284601F0BBFC1E49C1F80080F1
:100C78008C604E60CC600C614C618C61042228460B
:100C880001F0AEFC284601F0B7FA2146284601F0EB
:100C980025FD2B68196A41F21112114208D1196A0F
:100CA80040F24442114203D11A6822F001021A604C
:100CB80002B0BDE8F08100BF0038024030000020DB
:100CC800598B4F0128060020B5814E1B2C060020A9
:100CD800398EE3388988888888040020000001401C
:100CE800F00500200C06002010B5054C4FF4004319
:100CF800A361044800F0E2FC4FF00043A36110BD7B
:100D0800000C02403005002010B5054C4FF400538C
:100D1800A361044801F0B3FA4FF00053A36110BD7A
:100D2800000C0240880400200A48002343630A4A52
:100D380013600A4B1B68D96821F00101D960084982
:100D48000968D162012151616FF001021A6180F8CE
:100D58003010704730060020000001408804002051
:100D68002806002008B5FFF74BFEFFF785FEFFF7C2
:100D780033FF024B012283F8302008BD30060020E3
:100D880008B5064B93F8313003B908BD034B002270
:100D980083F83120FFF75AFDF7E700BF300600203F
:100DA80008B50D4B01221A730C4A1A604FF41062F1
:100DB8005A6002221A770A4A1A614FF4C0625A61CD
:100DC800032283F82C20074A1A624FF440725A62B1
:100DD800FFF7C8FF08BD00BF30060020CC06002082
:100DE800CC0F0020CC15002008B5064B93F8303006
:100DF80003B908BD034B012283F83120FFF7C0FF78
:100E0800F7E700BF3006002030B589B0002403940E
:100E180004940594069407940094194B1A6B42F0B5
:100E280004021A631A6B02F004020092009A0194F9
:100E38001A6B42F001021A631A6B02F00102019266
:100E4800019A02941A6B42F008021A631B6B03F0B2
:100E580008030293029B0B4D22464FF4704128462B
:100E680000F00CFE4FF470430393012304930594A0
:100E7800069403A9284600F00FFD09B030BD00BF55
:100E880000380240000C024008B500F027FA024A78
:100E980013680133136008BDCC18002072B6FEE752
:100EA80008B50A480A4B03604FF4E1334360002356
:100EB8008360C36003610C2242618361C36101F0F6
:100EC8005FFD00B908BDFFF7E9FF00BF1C1900204E
:100ED8000010014008B50A480A4B03604FF4E1339B
:100EE800436000238360C36003610C224261836115
:100EF800C36101F045FD00B908BDFFF7CFFF00BF92
:100F0800601900200044004000B583B0002300931E
:100F180001930D480D4A0260436083604FF6FF72EB
:100F2800C260836101F0CCFA50B9002300930193A9
:100F38006946054801F054FC20B903B05DF804FB8C
:100F4800FFF7ACFFFFF7AAFFD418002000100040FD
:100F580000B595B03022002108A801F095FD0023C6
:100F6800039304930593069307930193204A116C06
:100F780041F080511164126C02F080520192019A82
:100F880002931C4A116841F480411160126802F40E
:100F980080420292029A0A22089201220B921021A0
:100FA8000C910D9202220E920F9308231093A823FE
:100FB800119312920423139308A800F065FD98B9C1
:100FC8000F23039302230493002305934FF4A053A4
:100FD80006934FF480530793052103A800F0A2FF5E
:100FE80020B915B05DF804FBFFF758FFFFF756FF6F
:100FF800003802400070004008B500F055F9FFF7CE
:10100800A7FFFFF701FFFFF74BFFFFF763FFFFF7AE
:101018007BFFFFF7C5FE264C4FF44072254920465A
:10102800FFF758FA244E4FF4007224493046FFF770
:1010380051FA234D4FF4807222492846FFF74AFAA5
:10104800214B6361214BA360214B7361214B6B6181
:10105800214BE360214B2361214BF360214BEB6073
:10106800002241212046FFF7E7FA012242212046CB
:10107800FFF7E2FA022242212046FFF7DDFA0322B7
:1010880042212046FFF7D8FA042242212046FFF7E2
:10109800D3FA154B1B68322BFBD901210448FFF703
:1010A8003FFAFFF7A1FE104B00221A60F1E700BFDC
:1010B800A4190020CC060020081A0020CC0F00201C
:1010C800541A0020CC150020BC190020280000204C
:1010D800201A00206C1A00202C000020D0180020B4
:1010E8002400002020000020CC18002082B000211D
:1010F80000910B4B5A6C42F480425A645A6C02F4C9
:1011080080420092009A01911A6C42F080521A644F
:101118001B6C03F080530193019B02B0704700BF22
:10112800003802400268094B9A4200D0704782B0EA
:1011380000230193064B1A6C42F010021A641B6CD0
:1011480003F010030193019B02B0704700100040A8
:101158000038024000B58BB000230593069307932F
:10116800089309930368284A934205D0274A934273
:1011780026D00BB05DF804FB00210191244B5A6C7A
:1011880042F010025A645A6C02F010020192019A5D
:1011980002911A6B42F001021A631B6B03F0010300
:1011A8000293029B4FF4C063059302230693032323
:1011B80008930723099305A9164800F06DFBD8E7A3
:1011C80000210391124B1A6C42F400321A641A6C13
:1011D80002F400320392039A04911A6B42F001025E
:1011E8001A631B6B03F001030493049B0C23059300
:1011F80002230693032308930723099305A90548A7
:1012080000F04AFBB5E700BF001001400044004071
:101218000038024000000240FEE7FEE7FEE7FEE776
:10122800FEE77047704770470120704708B501F026
:1012380001FC162303604FF0FF3008BD08B54FF0DE
:10124800FF31FFF7F3FFFEE7034AD2F8883043F493
:101258007003C2F88830704700ED00E010B504460E
:101268000E4B18784FF47A73B3FBF0F30C4A1068FE
:10127800B0FBF3F000F09CF868B90F2C01D90120FD
:101288000AE0002221464FF0FF3000F04BF8054BF2
:101298001C60002000E0012010BD00BF34000020C9
:1012A800300000203800002008B50B4B1A6842F4C3
:1012B80000721A601A6842F480621A601A6842F46E
:1012C80080721A60032000F01BF80F20FFF7C6FF9A
:1012D800FFF70CFF002008BD003C0240034A1168DC
:1012E800034B1B780B441360704700BF881A00201B
:1012F80034000020014B1868704700BF881A00208E
:10130800074AD36823F4E0631B041B0C000200F4B3
:10131800E060034343F0BF6343F40033D360704796
:1013280000ED00E000B5194BDB68C3F30223C3F1FD
:10133800070CBCF1040F28BF4FF0040C03F1040E96
:10134800BEF1060F18D9033B4FF0FF3E0EFA0CFC16
:1013580021EA0C0199400EFA03F322EA0303194328
:1013680000280BDB0901C9B200F1604000F56140BB
:1013780080F800135DF804FB0023E5E700F00F0098
:101388000901C9B2024B1954F4E700BF00ED00E0AF
:1013980014ED00E0002807DB00F01F0240090123DC
:1013A8009340024A42F82030704700BF00E100E055
:1013B8000138B0F1807F0BD24FF0E0235861054A25
:1013C800F02182F823100020986107221A617047E3
:1013D8000120704700ED00E030B405682C6824F463
:1013E80080242C60046863608368402B05D0036800
:1013F80099600368DA6030BC704703689A600368D4
:10140800D960F8E710B40368D9B210390C4AA2FBC6
:10141800014212090B4CA25CC2655F2909D923F469
:101428007F7323F0030304338365806D5DF8044BF9
:10143800704723F47F7323F003038365F5E700BF48
:10144800ABAAAAAA643D0008836A826992B9012BF3
:101458000AD0022B02D00BB100207047C36A13F0E8
:10146800807F28D100207047C36AB3F1C07F24D0A1
:1014780000207047B2F5005F09D0022B25D9032B55
:1014880025D1C36A13F0807F23D100207047032B36
:1014980003D8DFE803F01404140A00207047C36A75
:1014A80013F0807F0DD100207047C36AB3F1C07F6D
:1014B80009D00020704701207047012070470120A3
:1014C80070470120704701207047012070470020B5
:1014D800704701207047000070B50446FFF70AFF07
:1014E800002C5BD00546022384F83530002384F8AD
:1014F80034302268136823F00103136023681A68E4
:1015080012F0010F0AD0FFF7F5FE431B052BF5D9A2
:1015180020236365032084F8350070BD1A682048CD
:1015280010406168A2680A43E1680A4321690A43D6
:1015380061690A43A1690A43E1690A43216A0A43C6
:101548000243616A04291ED01A602668756925F06D
:101558000705636A1D43042B07D1A36A1D43E36A89
:101568001BB12046FFF770FF90B975612046FFF761
:1015780049FFE26D3F2393408360002060650123AB
:1015880084F83530C9E7E16A206B01430A43DBE799
:1015980040236365012084F83500BEE70120BCE7DD
:1015A8003F8010F000282DD038B5054690F835005A
:1015B800C0B2022825D02A68136823F001031360FB
:1015C8002B6800241C602B685C602B689C602B686F
:1015D800DC602B681C612B6821225A612846FFF7C2
:1015E80011FFEC632C646C64AC64EC642C65EA6DEC
:1015F8003F23934083606C6585F8354085F8344017
:10160800204638BD0120704738B5044690F83400AC
:1016180001281BD0012084F8340094F83500C0B2AA
:10162800012804D0002384F83430022038BD022079
:1016380084F83500002565652046FFF7CDFE226851
:10164800136843F0010313602846EFE70220EDE733
:1016580038B50446856D90F8340001282BD0012058
:1016680084F8340094F83500C0B2012804D000236F
:1016780084F83430022038BD022084F83500002078
:1016880060652046FFF7A8FEE26D3F239340AB60FC
:101698002268136843F016031360236C23B1226891
:1016A800136843F0080313602268136843F00103CA
:1016B80013600020DFE70220DDE70000F0B583B00B
:1016C800044600230193724B1D68724BA3FB05353A
:1016D800AD0A876D3E68C26D08239340334210D02F
:1016E80003681A6812F0040F0BD01A6822F004027B
:1016F8001A60C26D08239340BB60436D43F0010339
:101708004365E26D01239340334209D02268526950
:1017180012F0800F04D0BB60636D43F00203636571
:10172800E26D04239340334209D02268126812F014
:10173800020F04D0BB60636D43F004036365E26D80
:1017480010239340334224D02268126812F0080F05
:101758001FD0BB6023681A6812F4802F0DD01B6855
:1017680013F4002F04D1236C9BB12046984710E056
:10177800A36C73B1204698470BE01A6812F4807F77
:1017880003D11A6822F008021A60236C0BB12046B4
:101798009847E26D20239340334255D0226812685F
:1017A80012F0100F50D0BB6094F83530DBB2052B27
:1017B8000ED023681A6812F4802F33D01B6813F4F4
:1017C800002F2AD1636C002B3ED0204698473BE07F
:1017D8002268136823F0160313602268536923F004
:1017E80080035361236CA3B12268136823F00803B4
:1017F8001360E26D3F239340BB60012384F83530CA
:10180800002384F83430236D002B3FD020469847BE
:101818003CE0A36C002BE7D1EBE7E36BA3B12046D8
:10182800984711E01A6812F4807F09D11A6822F0EB
:1018380010021A60012384F83530002384F834300C
:10184800E36B0BB120469847636DFBB1636D13F0F2
:10185800010F17D0052384F835302268136823F068
:1018680001031360019B01330193AB4204D8236841
:101878001B6813F0010FF5D1012384F835300023DC
:1018880084F83430E36C0BB12046984703B0F0BDC0
:1018980030000020B5814E1B00230F2B00F2E4809E
:1018A80070B582B060E085685E000324B44025EA24
:1018B8000405CC68B4402C438460456825EA0205D9
:1018C8004C68C4F300129A402A4342605AE0DC088C
:1018D800083450F8246003F0070295000F22AA404C
:1018E80026EA020E0A69AA4042EA0E0240F82420BB
:1018F8005CE0072200E0002202FA0EF22A430234DA
:101908005A4D45F824205A4A14686FEA0C0224EA12
:101918000C054E6816F4803F01D04CEA0405544C7F
:101928002560646802EA04054E6816F4003F01D099
:101938004CEA04054E4C6560A46802EA04054E684A
:1019480016F4801F01D04CEA0405494CA560E468F0
:1019580022404D6815F4001F01D04CEA0402444CA3
:10196800E26001330F2B7DD801229A400C6804EA0B
:10197800020C32EA0404F4D14C6804F00304013C7C
:10198800012C90D94A6802F00302032A09D0C468DE
:101998005D000322AA4024EA02048A68AA4022437E
:1019A800C2604A6802F00302022A90D004684FEA33
:1019B800430E032202FA0EF224EA02044A6802F0F5
:1019C800030202FA0EF2224302604A6812F4403F10
:1019D800C7D000220192274A546C44F480445464CE
:1019E800526C02F480420192019A9C08A51C1F4A7D
:1019F80052F8255003F003024FEA820E0F2202FA32
:101A08000EF225EA02051C4A90423FF474AF02F533
:101A1800806290421AD002F58062904218D002F596
:101A28008062904216D002F58062904214D002F58E
:101A38008062904212D002F58062904210D002F586
:101A4800806290423FF455AF082255E7012253E7E0
:101A5800022251E703224FE704224DE705224BE714
:101A6800062249E702B070BD704700BF0038014048
:101A7800003C014000380240000002400AB1816188
:101A88007047090481617047002800F0E08170B553
:101A980082B00446036813F0010F3BD09F4B9B684C
:101AA80003F00C03042B2CD09C4B9B6803F00C0315
:101AB800082B21D06368B3F5803F4FD0B3F5A02F32
:101AC80052D0964B1A6822F480321A601A6822F4AF
:101AD80080221A606368002B50D0FFF70BFC054684
:101AE8008E4B1B6813F4003F14D1FFF703FC401B17
:101AF8006428F5D90320B1E1884B5B6813F4800FA3
:101B0800D8D0864B1B6813F4003F03D06368002BC2
:101B180000F09F81236813F0020F54D07F4B9B681D
:101B280013F00C0F3ED07D4B9B6803F00C03082B81
:101B380033D0E368002B68D0794B01221A60FFF795
:101B4800D9FB0546754B1B6813F0020F54D1FFF7FC
:101B5800D1FB401B0228F5D903207FE16F4A1368A7
:101B680043F480331360B5E76C4B1A6842F4802263
:101B78001A601A6842F480321A60ABE7FFF7BAFBC2
:101B88000546664B1B6813F4003FC3D0FFF7B2FB52
:101B9800401B6428F5D9032060E1604B5B6813F4AF
:101BA800800FC6D15D4B1B6813F0020F03D0E368AA
:101BB800012B40F05081594A136823F0F80321693A
:101BC80043EAC1031360236813F0080F42D0636926
:101BD8006BB3534B0122C3F8802EFFF78BFB0546EE
:101BE8004E4B5B6F13F0020F34D1FFF783FB401BA2
:101BF8000228F5D9032031E1484A136823F0F80395
:101C0800216943EAC1031360DDE7454B00221A60EE
:101C1800FFF770FB0546414B1B6813F0020FD2D04B
:101C2800FFF768FB401B0228F5D9032016E13C4B5F
:101C38000022C3F8802EFFF75DFB0546374B5B6F2C
:101C480013F0020F06D0FFF755FB401B0228F5D909
:101C5800032003E1236813F0040F77D02F4B1B6C8C
:101C680013F0805F33D1002301932C4B1A6C42F0A0
:101C780080521A641B6C03F080530193019B012569
:101C8800284B1B6813F4807F23D0A368012B34D022
:101C9800052B38D0214B1A6F22F001021A671A6FF0
:101CA80022F004021A67A368002B3DD0FFF722FB3D
:101CB80006461A4B1B6F13F0020F46D1FFF71AFBAB
:101CC800801B41F288339842F3D90320C6E00025EF
:101CD800D6E7144A136843F480731360FFF70AFBCE
:101CE8000646104B1B6813F4807FCED1FFF702FB2A
:101CF800801B0228F5D90320B0E0084A136F43F08F
:101D080001031367CFE7054B1A6F42F004021A6705
:101D18001A6F42F001021A67C5E700BF0038024097
:101D28000000474200700040FFF7E4FA0646524BB5
:101D38001B6F13F0020F08D0FFF7DCFA801B41F28B
:101D480088339842F3D9032088E0EDB9A369002BC2
:101D580000F08380484A926802F00C02082A51D0A9
:101D6800022B17D0454B00221A66FFF7C3FA044628
:101D7800414B1B6813F0007F42D0FFF7BBFA001BF2
:101D88000228F5D9032069E03B4A136C23F08053FD
:101D98001364DBE7394B00221A66FFF7ABFA0546F6
:101DA800354B1B6813F0007F06D0FFF7A3FA401BE2
:101DB8000228F5D9032051E0E369226A1343626AD5
:101DC80043EA8213A26A5208013A43EA0243E26AEA
:101DD80043EA0263284A5360284B01221A66FFF738
:101DE80089FA0446244B1B6813F0007F06D1FFF7DD
:101DF80081FA001B0228F5D903202FE000202DE0EE
:101E080000202BE0012B2BD01B4B5B6803F48001D7
:101E1800E269914226D103F03F02216A8A4223D126
:101E2800616A47F6C0721A40B2EB811F1ED103F4F3
:101E38004031A26A5208013AB1EB024F18D103F0BF
:101E48007063E26AB3EB026F14D1002006E0012050
:101E58007047012002E0012000E0002002B070BDC0
:101E68000120FBE70120F9E70120F7E70120F5E76A
:101E78000120F3E70120F1E7003802400000474263
:101E880008B5254B9B6803F00C03042B3FD0082BA7
:101E98003FD1214B5A6802F03F025B6813F4800F70
:101EA80012D01D4B5968C1F388111C480023A1FBAF
:101EB8000001FEF765F9184B5B68C3F30143013372
:101EC8005B00B0FBF3F025E0134B5968C1F3881CA5
:101ED8004FEA4C11B1EB0C006EEB0E0E4FEA8E136D
:101EE80043EA90638101091A63EB0E03DB0043EABE
:101EF8005173C90011EB0C0C43F100039902002344
:101F08004FEA8C2041EA9C51FEF73AF9D3E703489F
:101F180000E0034808BD00BF0038024040787D015A
:101F28000024F400002800F09B8070B50D4604469C
:101F38004F4B1B6803F007038B4208D2CBB24C4AC5
:101F48001370136803F007038B4240F08B802368FB
:101F580013F0020F17D013F0040F04D0454A93680A
:101F680043F4E0539360236813F0080F04D0414A08
:101F7800936843F4604393603E4A936823F0F00308
:101F8800A1680B439360236813F0010F32D0636894
:101F9800012B21D09A1E012A25D9364A126812F03F
:101FA800020F61D033498A6822F0030213438B6021
:101FB800FFF7A0F906462F4B9B6803F00C036268F5
:101FC800B3EB820F16D0FFF795F9801B41F28833E7
:101FD8009842F0D9032042E0264A126812F4003FE2
:101FE800E0D101203BE0234A126812F0007FD9D1EA
:101FF800012034E01E4B1B6803F00703AB4207D9EE
:10200800EAB21B4B1A701B6803F00703AB422DD1D1
:10201800236813F0040F06D0164A936823F4E0539C
:10202800E1680B439360236813F0080F07D0114A47
:10203800936823F46043216943EAC1039360FFF77F
:102048001FFF0C4B9B68C3F303130B4AD35CD840A8
:102058000A4B18600A4B1868FFF700F9002070BD9A
:10206800012070470120FAE70120F8E70120F6E790
:10207800003C0240003802404C3D0008300000207F
:1020880038000020014B1868704700BF300000205E
:1020980008B5FFF7F7FF044B9B68C3F38223034A95
:1020A800D35CD84008BD00BF003802405C3D000842
:1020B80008B5FFF7E7FF044B9B68C3F34233034AB5
:1020C800D35CD84008BD00BF003802405C3D000822
:1020D80030B4036A23F001030362036A4268846927
:1020E80024F073040D682C4323F0020C8B6843EA38
:1020F8000C03104DA84203D005F58065A84205D110
:1021080023F00803CD682B4323F00403094DA842AC
:1021180003D005F58065A84205D122F440724D69C7
:102128002A438D692A43426084614A684263036294
:1021380030BC70470000014030B4036A23F4807358
:102148000362036A4268C46924F0730C0C6844EAA9
:102158000C0523F400738C6843EA0423114CA04255
:1021680003D004F58064A04206D123F40063CC6850
:1021780043EA042323F480630A4CA04203D004F505
:102188008064A04207D122F440524C6942EA04120A
:102198008C6942EA04124260C5614A68C2630362FC
:1021A80030BC70470000014030B4036A23F4805308
:1021B8000362036A4468C26922F4E6420D6842EA8F
:1021C800052223F400538D6843EA0533094DA842DC
:1021D80003D005F58065A84204D124F480444D69F4
:1021E80044EA85144460C2614A680264036230BCF0
:1021F800704700BF0000014090F83D30DBB2012B72
:1022080032D1022380F83D300368194A934220D026
:10221800B3F1804F1DD0A2F57C42934219D002F54C
:102228008062934215D002F58062934211D002F584
:10223800784293420DD002F57052934209D0A2F52C
:102248009432934205D01A6842F001021A600020C5
:1022580070479A6802F00702062A07D01A6842F007
:1022680001021A6000207047012070470020704763
:10227800000001407047704770477047704710B5BD
:10228800044603681A6912F0020F11D0DA6812F0D6
:10229800020F0DD06FF002021A6101230377036861
:1022A8009B6913F0030F70D0FFF7E6FF0023237735
:1022B80023681A6912F0040F12D0DA6812F0040FBA
:1022C8000ED06FF004021A610223237723689B69FA
:1022D80013F4407F5FD02046FFF7CEFF002323771B
:1022E80023681A6912F0080F12D0DA6812F0080F82
:1022F8000ED06FF008021A61042323772368DB6984
:1023080013F0030F4ED02046FFF7B6FF00232377C4
:1023180023681A6912F0100F12D0DA6812F0100F41
:102328000ED06FF010021A61082323772368DB6947
:1023380013F4407F3DD02046FFF79EFF002323770C
:1023480023681A6912F0010F03D0DA6812F0010F3E
:1023580036D123681A6912F0800F03D0DA6812F0B8
:10236800800F34D123681A6912F0400F03D0DA685D
:1023780012F0400F32D123681A6912F0200F03D0EF
:10238800DA6812F0200F30D110BDFFF774FF204635
:10239800FFF773FF8AE72046FFF76DFF2046FFF738
:1023A8006CFF9BE72046FFF766FF2046FFF765FFB7
:1023B800ACE72046FFF75FFF2046FFF75EFFBDE76B
:1023C8006FF001021A612046FEF7AEFCC1E76FF01C
:1023D80080021A61204600F04AFAC3E76FF0400213
:1023E8001A612046FFF74AFFC5E76FF020021A611D
:1023F800204600F03BFAC7E70368304A904212D003
:10240800B0F1804F0FD0A2F57C4290420BD002F57C
:102418008062904207D002F58062904203D002F5B4
:102428007842904203D123F070034A681343234A49
:1024380090422AD0B0F1804F27D0A2F57C4290423A
:1024480023D002F5806290421FD002F5806290424C
:102458001BD002F57842904217D002F57052904294
:1024680013D002F5806290420FD002F5806290424C
:102478000BD0A2F59832904207D002F580629042C4
:1024880003D002F58062904203D123F44073CA68F6
:10249800134323F080034A69134303608B68C362C4
:1024A8000B688362054B984203D003F5806398421A
:1024B80001D10B69036301234361704700000140A8
:1024C80040B310B5044690F83D30F3B1022384F8C8
:1024D8003D30214651F8040BFFF78EFF012384F8A5
:1024E800463084F83E3084F83F3084F8403084F831
:1024F800413084F8423084F8433084F8443084F81A
:10250800453084F83D30002010BD80F83C30FEF79F
:1025180009FEDBE70120704740B310B5044690F888
:102528003D30F3B1022384F83D30214651F8040BC5
:10253800FFF762FF012384F8463084F83E3084F8C0
:102548003F3084F8403084F8413084F8423084F8D1
:10255800433084F8443084F8453084F83D30002016
:1025680010BD80F83C30FFF785FEDBE7012070479F
:1025780030B4036A23F010030362036A4468826973
:1025880022F4E6420D6842EA052223F020038D6812
:1025980043EA0513114DA84203D005F58065A8420A
:1025A80006D123F08003CD6843EA051323F04003E6
:1025B8000A4DA84203D005F58065A84207D124F446
:1025C80040644D6944EA85048D6944EA85044460A1
:1025D80082614A688263036230BC70470000014030
:1025E80038B590F83C30012B66D004460D460123DF
:1025F80080F83C300C2A5AD8DFE802F007595959BC
:102608001B5959593059595944000068FFF760FD62
:102618002268936943F0080393612268936923F061
:10262800040393612268936929690B43936100202D
:102638003EE00068FFF79CFF2268936943F400635B
:1026480093612268936923F4806393612268936994
:10265800296943EA01239361002029E00068FFF714
:102668006BFD2268D36943F00803D3612268D369FC
:1026780023F00403D3612268D36929690B43D3612A
:10268800002015E00068FFF78FFD2268D36943F446
:102698000063D3612268D36923F48063D36122681D
:1026A800D369296943EA0123D361002000E00120AE
:1026B800002384F83C3038BD0220FCE701F01F01FC
:1026C800012303FA01FC036A23EA0C030362036A89
:1026D80002FA01F10B4303627047000010B504468B
:1026E8000846002942D194F83E30DBB2013B18BFBE
:1026F8000123002B6ED1002851D1022384F83E30EB
:10270800012201462068FFF7D9FF2368334A934224
:1027180003D002F58062934203D15A6C42F400421E
:102728005A6423682D4A934249D0B3F1804F46D06A
:10273800A2F57C42934242D002F5806293423ED099
:1027480002F5806293423AD002F57842934236D03D
:1027580002F57052934232D0A2F5943293422ED0B1
:102768001A6842F001021A60002032E0042908D0F9
:1027780008290DD094F84130DBB2013B18BF012382
:10278800B7E794F83F30DBB2013B18BF0123B0E74D
:1027980094F84030DBB2013B18BF0123A9E70428B5
:1027A80005D0082807D0022384F84130A8E702237F
:1027B80084F83F30A4E7022384F84030A0E79A6801
:1027C80002F00702062A07D01A6842F001021A60CE
:1027D800002010BD0120FCE70020FAE700000140BE
:1027E80090F83C30012B3DD010B4012380F83C30E8
:1027F800022380F83D3003685A689C6822F0700C08
:102808000A6842EA0C025A600368174A93421AD0CF
:10281800B3F1804F17D0A2F57C42934213D002F552
:10282800806293420FD002F5806293420BD002F58A
:102838007842934207D002F57052934203D0A2F532
:102848009432934204D124F080044A6814439C6073
:10285800012380F83D30002380F83C3018465DF8AD
:10286800044B7047022070470000014070477047D2
:1028780038B504460268136923F44053C1680B4312
:10288800136183680269134342691343C2691A4397
:102898000168CB6823F4164323F00C031343CB6081
:1028A8000268536923F4407381690B4353610368D9
:1028B800314A934206D002F58062934202D0FFF774
:1028C800E7FB01E0FFF7F4FBE369B3F5004F29D01C
:1028D8000021031849411B1841F10001C90041EAD0
:1028E8005371DB00181863684FEA83024FEA937349
:1028F80041F10001FDF744FC204DA5FB00325109D0
:10290800642303FB11031B013233A5FB03235B097B
:1029180003F0F00202EB011203F00F0321681344E5
:102928008B6038BD0023021843EB0301121841F1F4
:102938000001C90041EA5271D200101841F10001AA
:10294800626892185B41FDF71BFC0C4DA5FB003239
:102958005109642303FB1103DB003233A5FB032376
:102968005B095A0002F4F87202EB011203F0070344
:10297800216813448B60D4E7001001401F85EB5198
:1029880058B310B5044690F83D300BB3242384F8AF
:102998003D302268D36823F40053D3602046FFF704
:1029A80067FF2268136923F490431361226853690F
:1029B80023F02A0353612268D36843F40053D36099
:1029C80000202064202384F83D3084F83E3010BD78
:1029D80080F83C30FEF7BEFBD8E7012070470000C6
:1029E800DFF834D00D480E490E4A002302E0D458CF
:1029F800C4500433C4188C42F9D30B4A0B4C00233F
:102A080001E013600432A242FBD3FEF71DFC00F084
:102A180017F8FEF7F1FA70470000022000000020C6
:102A28006C040020583E00086C040020941A002012
:102A3800FEE70000014B1868704700BF3C0000200B
:102A480070B50D4E0D4D761BB61006D0002455F806
:102A5800043B01349847A642F9D1094E094D761B2B
:102A680001F0E4F8B61006D0002455F8043B013410
:102A78009847A642F9D170BD4C3E00084C3E00086C
:102A8800543E00084C3E0008830730B548D0541E19
:102A9800002A3FD0CAB2034601E0013C3AD303F80A
:102AA800012B9D07F9D1032C2DD9CDB245EA052577
:102AB8000F2C45EA054536D9A4F1100222F00F0C77
:102AC80003F1200EE6444FEA121C03F1100242E91A
:102AD800045542E9025510327245F8D10CF1010251
:102AE80014F00C0F03EB021204F00F0C13D0ACF12E
:102AF800040323F003030433134442F8045B9342B2
:102B0800FBD10CF003042CB1CAB21C4403F8012B0E
:102B18009C42FBD130BD64461346002CF4D1F9E742
:102B280003461446BFE71A46A446E0E7024B13B132
:102B3800024800F01FB8704700000000492B000849
:102B480038B5084B084D5B1B9C1007D0043B1D444F
:102B5800013C55F804399847002CF9D1BDE83840B4
:102B680001F06AB8583E0008543E0008704700BF9C
:102B7800704700BF002301461A46184600F000B807
:102B88002DE9F047DFF880A00646DAF800009846FD
:102B98000F469146FFF7EAFF1A4B1B68D3F84841E6
:102BA80024B365681F2D26DC5EB96B1C0235DAF884
:102BB8000000636044F82570FFF7DAFF0020BDE8E5
:102BC800F08704EB85010123C1F88890D4F88821A7
:102BD800AB401A43022EC4F88821C1F80881E4D119
:102BE800D4F88C211343C4F88C31DEE703F5A674BE
:102BF800C3F84841D5E7DAF80000FFF7B9FF4FF00E
:102C0800FF30DCE76C3D0008680400202DE9F04740
:102C1800089D04468E46002B4DD18A42944669D9B8
:102C2800B2FA82F252B101FA02F3C2F1200120FA9B
:102C380001F10CFA02FC41EA030E94404FEA1C48E9
:102C4800210CBEFBF8F61FFA8CF708FB16E341EAE5
:102C5800034306FB07F199420AD91CEB030306F16B
:102C6800FF3080F01F81994240F21C81023E63448C
:102C78005B1AA4B2B3FBF8F008FB103344EA034430
:102C880000FB07F7A7420AD91CEB040400F1FF3345
:102C980080F00A81A74240F207816444023840EA82
:102CA8000640E41B00261DB1D4400023C5E90043BB
:102CB8003146BDE8F0878B4209D9002D00F0EF803E
:102CC8000026C5E9000130463146BDE8F087B3FA71
:102CD80083F6002E4AD18B4202D3824200F2F98059
:102CE800841A61EB030301209E46002DE0D0C5E95C
:102CF800004EDDE702B9FFDEB2FA82F2002A40F0A8
:102D08009280A1EB0C014FEA1C471FFA8CFE0126AA
:102D1800200CB1FBF7F307FB131140EA01410EFB4E
:102D280003F0884208D91CEB010103F1FF3802D2F5
:102D3800884200F2CB804346091AA4B2B1FBF7F0EF
:102D480007FB101144EA01440EFB00FEA64508D912
:102D58001CEB040400F1FF3102D2A64500F2BB804F
:102D68000846A4EB0E0440EA03409CE7C6F120079E
:102D7800B34022FA07FC4CEA030C20FA07F401FAE4
:102D880006F31C43F9404FEA1C4900FA06F3B1FB6D
:102D9800F9F8200C1FFA8CFE09FB181140EA0141D2
:102DA80008FB0EF0884202FA06F20BD91CEB01016F
:102DB80008F1FF3A80F08880884240F28580A8F1C7
:102DC80002086144091AA4B2B1FBF9F009FB101119
:102DD80044EA014100FB0EFE8E4508D91CEB0101B7
:102DE80000F1FF346CD28E456AD90238614440EA5A
:102DF8000840A0FB0294A1EB0E01A142C846A646DA
:102E080056D353D05DB1B3EB080261EB0E0101FA62
:102E180007F722FA06F3F1401F43C5E900710026BF
:102E28003146BDE8F087C2F12003D8400CFA02FC15
:102E380021FA03F3914001434FEA1C471FFA8CFE25
:102E4800B3FBF7F007FB10360B0C43EA064300FB15
:102E58000EF69E4204FA02F408D91CEB030300F1B3
:102E6800FF382FD29E422DD9023863449B1B89B26A
:102E7800B3FBF7F607FB163341EA034106FB0EF3F3
:102E88008B4208D91CEB010106F1FF3816D28B42A0
:102E980014D9023E6144C91A46EA004638E72E466C
:102EA800284605E70646E3E61846F8E64B45A9D264
:102EB800B9EB020864EB0C0E0138A3E74646EAE7D3
:102EC800204694E74046D1E7D0467BE7023B614481
:102ED80032E7304609E76444023842E703685A009B
:102EE8004CBF43F0004323F000431844704700BF31
:102EF8002DE9F84329B34F1E044615463E464FF0C8
:102F0800000808EB060101EBD171491004EBC10977
:102F18004846FFF7E3FF0346C80008308F422044C5
:102F280009D0AB4209D8FFF7D9FF0138A8420AD225
:102F380001F10108E5E7AB4205D9884501D04E1EED
:102F4800DFE74FF000094846BDE8F883012807D0BD
:102F5800022807D0044B00280CBF184600207047F1
:102F680002487047024870471936000821360008A1
:102F78002936000830B5234B83B004468D1E3BB379
:102F880001A92846AFF30080E8B101992A46FFF766
:102F9800AFFF0146B8B1FFF7A1FF4B68A064012B52
:102FA8002CD0002B01F1040024DBFFF797FF00234E
:102FB800C4E913030368002B11DBFFF78FFF2061BF
:102FC800002003B030BD00230920236103B030BDC9
:102FD8000D4B0E49C91AC91018460191D6E7C3F31B
:102FE8000360FFF7B3FF0028206114BF0020092009
:102FF80003B030BD0123C4E91303DBE700232361D9
:103008000520DEE7000000007C3D00084C3E00087B
:103018000368DA0710B5044606D49B0700F1480098
:1030280009D5FDF7D9F82368590709D51A070ED528
:10303800DB0613D510BDFDF7C7F823685907F5D48B
:1030480004F1D000FDF7D0F823681A07F0D404F58E
:10305800A870FDF7D1F82368DB06EBD404F5E87017
:10306800BDE81040FDF70CB90346006800B11844EC
:10307800704700BF704700BF70B504460E46316CFC
:103088002046FFF777FF054688B9326C62612369ED
:1030980032462146012098470828F0D0072806D153
:1030A8002846316CFFF7E6FF301DFDF781F800F088
:1030B8006FFD00BF2DE9F0470D1DD0F80C80D0F84A
:1030C8001890074614460FCDADF5727D0DF10C0C26
:1030D800ACE80F000FCDACE80F000FCDACE80F0047
:1030E80095E80F0002AE4FF0000E8CE80F00C6F80E
:1030F80000E020E0336C7B614FF4F07231467AA82F
:10310800FDF72EF93B697AAA394650469847889BBD
:1031180073642146CDE9006905463B463A460120DD
:10312800C0470446E0B94FF4F0727AA93046FDF77B
:1031380017F9082D1AD1316C3846FFF71BFF0934EF
:103148005FFA84FA05460028D4D0B36B73643A4614
:10315800CDE900693B464AF010010120C04700B1A3
:10316800092528460DF5727DBDE8F087072DF7D1B2
:103178002046316CFFF77EFF03A8FDF719F800BF62
:10318800F0B5CB6B0B6401F1040C0E460546BCE8A8
:103198000F00F9B001AC0FC4BCE80F000FC4BCE8C5
:1031A8000F000FC49CE80F004FF0FF3784E80F00B2
:1031B800009706E02B696A4629469847082804467E
:1031C80008D110992846FFF7D5FE0028F2D009202B
:1031D80079B0F0BD6846FFF71BFF062CF7D13146E2
:1031E8002846FFF749FF00BFC160D96B82611964A7
:1031F80000221946FFF75EBF70B5C66843690B64C5
:10320800AEB903690A4604460D46014602209847AE
:10321800072805D008280FD129462046FFF72CFF9C
:103228003046296CFFF726FF281DFCF7C1FF012255
:10323800FFF740FF00F0ACFC00F0AAFCC26822B126
:10324800CA6B0A640022FFF735BFFFF799BF00BFBA
:10325800012912D009D873B90F2A0CD800EB8202C1
:1032680018465368009A136070470339012994BFC0
:10327800012002207047022070470846704700BFAF
:1032880000B585B00A46002303A900911946FFF747
:10329800DFFF039805B05DF804FB00BF012912D0D9
:1032A80009D873B90F2A0CD800EB8200009A12686B
:1032B8004260184670470339012994BF0120022053
:1032C8007047022070470846704700BF10B584B0A9
:1032D800002303AC039200940A461946FFF7DEFF69
:1032E80004B010BD70B5D36B136402F1040C05462D
:1032F8000C46BCE80F00ADF50E7D0DF15C0EAEE896
:103308000F00BCE80F00AEE80F00BCE80F00AEE805
:103318000F009CE80F004FF0FF368EE80F0016965E
:1033280010E0FFF7D3FF214616A8A847034616AAC0
:103338006946082083B9049B9847052806460CD09F
:10334800092809D026996846FFF714FE03466A46FD
:103358000C2116A8002BE4D0092616A8FFF758FE62
:1033680030460DF50E7D70BD2DE9F04FCC6C89B05F
:103378001E4654F8043B06940D46174600F0030811
:10338800002E79D01A0C1B0405938DF81D200223FA
:10339800D2B204EB82048DF81C302B6DB8F1020F09
:1033A80008BFAC6B13F001030CD005A9384600F038
:1033B80099FA18B9082009B0BDE8F08F092009B0BA
:1033C800BDE8F08FD4F800A0BAF1000FEDD001935A
:1033D80000F008030293022E4AD0B4F800A0B4F813
:1033E80002900434AB6C29F0010B0F2138469B4442
:1033F800FFF746FF834539D82AF001039B448345EC
:1034080094BF002001204FEA490303F002030AF0A9
:10341800010A43EA0A03012B49D0022B32D0002BC0
:10342800CCD1B8F1000F02D0002840F0CD80043490
:10343800D4F800A0BAF1000FCDD105A9384600F0A4
:1034480051FA0028BAD1019B002BB3D00F2138467E
:10345800FFF716FF0E2102463846FFF737FF3846BA
:103468006A4A0F21FFF732FF0720A8E70020CAE7C2
:10347800D4F804900834B5E71B0205930323ADF88C
:103488001C308AE7236823F0004BB8F1000F45D1C0
:1034980028B1029A002A5CD0BBF1000F74D0002B2F
:1034A80000DA04340BF1010B04EB8B04C0E7B8F12C
:1034B800000F19D1B0B163682268991C4FEAD27223
:1034C8003FF47CAF05F158010133049100F090807E
:1034D800201DFFF7C9FD04AB01462846AFF3008065
:1034E80000285BD10834A3E70D213846D5F8209091
:1034F800FFF7C6FE8145F5D1AB6A9C42F2D1204662
:10350800FFF7ECFC0F2102463846FFF7DFFE38468E
:103518002A460021FFF7DAFE072050E70D2138463A
:10352800D5F82090FFF7ACFE814501D02368B6E7B7
:10353800AB6A9C42FAD104230022C5E90B23E318A5
:10354800C5F828B06B632368002B59DB012301936E
:10355800A8E705F15803CDF80C8004F1040AB04639
:1035680091461E460EE050460496FFF77DFD002268
:10357800014604AB284609F101090AF1040AAFF330
:103588000080E0B9D945EED10D213846FFF778FE25
:10359800049BAC62C5E90803062010E781460D21AB
:1035A8003846FFF76DFEB9F1020F286225D12B4688
:1035B800049A43F82C2F6B62AC620620FFE646465D
:1035C8002368DDF80C806AE72046FFF787FC04349F
:1035D8000246AC6328461446AFF3008000283FF447
:1035E800EDAE384622460F21FFF770FE0720E6E6CB
:1035F8000D213846FFF744FE2862049B6B62DBE727
:103608000BF1010004EB80007AE700BF0000000026
:103618000023FFF7A9BE00BF0123FFF7A5BE00BF27
:103628000223FFF7A1BE00BF2DE9F0430646C3B051
:1036380015461C46042900F2BF80DFE801F09E57BA
:10364800BD2D0300002C40F0B780102A00F2B48092
:103658000368D80600F1F98020AF3846FCF71AFE57
:10366800B46B394600234FF0010C0CFA03F22A42DE
:10367800204603F1010303D050F8042B0A600446E6
:10368800042B01F10401F0D13846B463FCF7F8FDCE
:10369800002043B0BDE8F083032C40F08D8094B245
:1036A80004EB1243102B4FEA124500F285800368A1
:1036B8001F0700F1D28020AF3846FCF7BFFDB26B80
:1036C80007EBC50154B10B46D01A01EBC401E40065
:1036D8001D5843F8045B8B42FAD122443846B26342
:1036E800FCF78AFD002043B0BDE8F083012C4FEAC7
:1036F800124895B25CD0052C5ED108EB0509B9F1EA
:10370800200F59D8B8F10F0F79D9A946002D40F0EC
:103718008A80B36B6DB320AF4FF0000907EBC80781
:10372800043F03EBC50553F8041B47F8041FAB42DD
:10373800F9D1B9F1000F0FD06F464146102938BFB3
:10374800102107EBC101843903EBC90553F8040BB9
:1037580041F8040FAB42F9D1012C00F08680B8F192
:103768000F0FB56347D9B9F1000F02D06846FCF7CF
:103778003BFD002043B0BDE8F083ECB9806B2346E5
:103788001FFA82FC0124371D04FA03F212EA0C0F17
:10379800014604D051F8042B47F82320084601338A
:1037A800102BF1D115F40055E3D1B063284604E09D
:1037B80008EB0503102B03D9022043B0BDE8F083C2
:1037C800B8F10F0FF8D83368DA0706D5304623F07A
:1037D800030340F8483BFCF7FBFC20AF3846FCF7F6
:1037E800F7FCB36B002D97D11D460435B5633846F9
:1037F800FCF7EAFCBDE720A8FCF7EEFCB3E7B9F15B
:10380800100F40D9A9F110093368D90708D523F05A
:103818000103304643F0020340F8483BFCF7E0FC64
:10382800B9F1000F32D033685A0720D4B8F10F0F1E
:1038380025D96F463846C8F11005FCF7D9FC002D8C
:10384800B36B7FF77AAF20AF68E723F010033360DC
:1038580006F5E870FCF71EFDFEE623F0080303609A
:1038680000F5A870FCF7EAFC25E720AFBDE7304675
:1038780023F0040340F8D03BFCF7BAFCD6E720A8B5
:10388800FCF7AEFCD5E74FF00009BDE7B8F10F0F24
:103898003FF63FAF20AF3846FCF7A2FCB36B002DD4
:1038A8007FF43AAF3846FCF797FC62E7027A0346A2
:1038B8007AB9427AA2B14168013A10B442720868F2
:1038C80003220C1D1A7202025C60000E10BC1A6002
:1038D80070470068013A1A7202021A60000E7047B7
:1038E800B02070472DE9F043054685B00E464FF0ED
:1038F80000083046FFF7DAFFB028044600F0BA8027
:10390800070620D500F0F003802B4DD0902B36D041
:10391800A02B60D0B02B74D0C02B00F08B8000F0AF
:10392800F803D02B0BD100F007020132052342F433
:10393800002201212846FFF777FE0028D9D0092068
:1039480005B0BDE8F0838300DBB21F1D0DF10C0943
:1039580000231946CDF800900D222846FFF778FC81
:10396800039BCDF8009060064CBFDF1BFF180023B7
:103978000D22194628460397FFF790FCB9E700F097
:103988000D030D2BDBD003AF002300F00F02194607
:1039980000972846FFF75CFC002300970D22194684
:1039A8002846FFF77BFCA4E73046FFF77FFF240299
:1039B8002043B0F5004FC2D004010023A2B219463B
:1039C8002846FFF731FE0028B9D114F4004F18BF7C
:1039D8004FF001088DE7C24302F007034FF47F62FE
:1039E8001A41010702F47F624FF0000348BF42F416
:1039F800804219462846FFF717FE00283FF479AFA2
:103A08009DE7B1283BD0B22800F09380B32841D07D
:103A180000F0FC03B42B92D000F00702013201231E
:103A280042F4002219462846FFF7FEFD00283FF41D
:103A380060AF84E7C6284AD0C72854D000F0F803FE
:103A4800C02B63D0C82868D0C9287FF478AF304627
:103A5800FFF72CFF020300F00F0002F47022013080
:103A68000243012105232846FFF7DEFD00283FF425
:103A780040AF64E7B8F1000F18D0002060E7304687
:103A8800FFF714FF024600283FF459AF10F0F00387
:103A9800C8D054E73046FFF709FF020300F00F03D0
:103AA800013302F470221A430123BBE703AC4346F7
:103AB8000E22414600942846FFF7CAFB009443466D
:103AC8000F2241462846FFF7E9FB404638E73046D3
:103AD800FFF7ECFE020300F00F03013302F470223B
:103AE8001A4303239EE73046FFF7E0FE024600280C
:103AF8003FF425AF10F0F0037FF421AF04212846EE
:103B0800FFF792FD00283FF4F4AE18E700F00F022B
:103B18000132032342F4202284E73046FFF7C6FE31
:103B280000F0F00200F00F031032013343EA0232D2
:103B380097E700230DF10C090D221946CDF80090E6
:103B48002846FFF785FB3046FFF7B0FE02064FF028
:103B580002040CD5039B00F07F00A040184403909A
:103B68003046FFF7A3FE030604F10704F2D4039BD3
:103B7800CDF8009000F07F02A24003F501731A44CB
:103B88000023039219460D222846FFF787FBB0E66B
:103B980008B5062000F004F80120FDF74FFB00BF30
:103BA80038B5154B1F281D6820D8D5F8DC220446E7
:103BB80062B152F820304BB1012B15D0591C0FD0EF
:103BC800002542F820509847284638BD284600F07E
:103BD8002BF8224601462846BDE8384000F00EB8CA
:103BE80016232B60012038BD002038BD16232B601A
:103BF8004FF0FF3038BD00BF3C00002070B50C46C8
:103C0800084D03460026204611461C462E60FDF747
:103C18000DFB431C00D070BD2B68002BFBD023602C
:103C280070BD00BF901A0020FDF7FEBAF8B500BFBE
:103C3800F8BC08BC9E467047F8B500BFF8BC08BC85
:043C48009E467047DD
:103C4C000000000000000000000000000000000068
:103C5C000000000000000000000000000101010154
:103C6C000101010101010101010202020202020231
:103C7C0002030303030303030404040404050505FE
:103C8C000506060606070707070808080909090AB2
:103C9C000A0A0B0B0B0C0C0D0D0D0E0E0F0F10104A
:103CAC0011111212131314141515161617181819BE
:103CBC00191A1B1B1C1D1D1E1F202021222323240F
:103CCC002526272728292A2B2C2D2E2F303132322E
:103CDC003334363738393A3B3C3D3E3F404243441F
:103CEC00454648494A4B4D4E4F51525355565759DC
:103CFC005A5C5D5F606263656668696B6D6E70725D
:103D0C00737577787A7C7E7F81838587898A8C8EA0
:103D1C0090929496989A9C9EA0A2A4A7A9ABADAFA2
:103D2C00B1B4B6B8BABDBFC1C4C6C8CBCDD0D2D55C
:103D3C00D7DADCDFE1E4E7E9ECEFF1F4F7F9FCFFCB
:103D4C00000000000000000001020304060708093F
:103D5C0000000000010203040006101600061016F5
:043D6C0040000020F3
:0C3D700008B10181B0B000840000000028
:103D7C00C0ECFF7F01000000C4ECFF7FB0B0AA8054
:103D8C0004EDFF7F01000000B4EDFF7FA908B180B6
:103D9C00D8EDFF7F01000000E4EDFF7FB0B0AE80F6
:103DAC0068EEFF7F01000000C8F1FF7FB0A9028020
:103DBC005CF2FF7FB0B0A880ACF2FF7F0100000086
:103DCC00B4F2FF7FB0B0AA80E8F2FF7FAE71B28090
:103DDC00ACF3FF7FAB3F38800CF4FF7F0100000099
:103DEC0014F4FF7FB0B0AA8050F4FF7F01000000F4
:103DFC00F0F4FF7FAA0DB2806CF5FF7FB0AF0880A6
:103E0C000CF8FF7F010000001CF8FF7FAD3F028023
:103E1C0098FAFF7F01000000C8FAFF7FB0AD048064
:103E2C006CFDFF7F40FFFF7F74FDFF7FA908B18011
:103E3C00C8FDFF7FB0B0AA80ECFDFF7F0100000041
:083E4C00352B0008C104000839
:043E54009D040008C1
:103E58007E0909097E0000007C41414141000000C3
:103E6800228241823E0000000F00000000000F0087
:103E7800000078000078000060080000780000006A
:103E88000024F400010000001000000040000020A1
:103E9800000000002C03002094030020FC030020F5
:103EA800000000000000000000000000000000000A
:103EB80000000000000000000000000000000000FA
:103EC80000000000000000000000000000000000EA
:103ED80000000000000000000000000000000000DA
:103EE80000000000000000000000000000000000CA
:103EF80000000000000000000000000000000000BA
:103F080000000000000000000000000000000000A9
:103F18000000000000000000000000000000000099
:103F28000000000000000000000000000000000089
:103F38000000000000000000010000000000000078
:103F48000E33CDAB34126DE6ECDE05000B0000003D
:103F58000000000000000000000000000000000059
:103F68000000000000000000000000000000000049
:103F78000000000000000000000000000000000039
:103F88000000000000000000000000000000000029
:0C42B80000000000000000008C1A002034
:04000005080029E9DD
:00000001FF
