:020000040800F2
:10000000000002201D420008892800088B280008F3
:100010008D2800088F2800089128000800000000A3
:10002000000000000000000000000000932800080D
:1000300095280008000000009728000849230008C0
:100040006D4200086D4200086D4200086D420008D4
:100050006D4200086D4200086D4200086D420008C4
:100060006D4200086D4200086D4200086D420008B4
:100070006D4200086D4200086D4200086D420008A4
:100080006D4200086D4200086D4200086D42000894
:100090006D4200086D4200086D4200086D42000884
:1000A0006D4200081D2100086D4200086D420008E5
:1000B0006D4200086D4200086D4200086D42000864
:1000C0006D4200086D4200086D4200086D42000854
:1000D0006D4200086D4200086D4200086D42000844
:1000E0006D4200086D4200086D4200086D42000834
:1000F0006D4200086D4200086D4200086D42000824
:100100006D4200086D4200086D4200086D42000813
:100110006D4200086D4200086D4200086D42000803
:100120006D4200086D420008FD2000086D42000885
:100130006D4200086D4200086D4200086D420008E3
:100140006D4200086D4200086D4200086D420008D3
:100150006D4200086D4200086D4200086D420008C3
:100160006D4200086D4200086D4200086D420008B3
:100170006D4200086D4200086D420008000000005A
:080180006D4200086D42000809
:1001A000A2EB0300704700BF02780B78012A28BF3A
:1001B0009A42F5D16DE9044540EA0104CDE90267B0
:1001C0006FF0000C4FEA447212B380EA010414F09D
:1001D000070F6AD100F0070420F0070004F00305C0
:1001E00021F007014FEAC505F0E8042314F0040FDD
:1001F000F1E804670CFA05F462EA040266EA040610
:100200000AD063EA0403624667EA0407664603E02D
:10021000F0E80423F1E8046782FA4CF582EA060468
:10022000A4FA8CF46CBB83FA4CF583EA0705A5FAB3
:100230008CF595B950E9022351E9026782FA4CF531
:1002400082EA0604A4FA8CF483FA4CF583EA0705E3
:10025000A5FA8CF52543DBD09CB92DBAB5FA85F407
:1002600024F0070427FA04F1DDE9026723FA04F316
:1002700003F0FF0001F0FF01FDE80445A0EB0100E1
:10028000704724BAB4FA84F424F0070426FA04F17F
:10029000DDE9026722FA04F202F0FF0001F0FF013B
:1002A000FDE80445A0EB0100704714F0030F3CD1BA
:1002B00010F0030428D150F8082B51F8083B82FABB
:1002C0004CF582EA0305A5FA8CF55DB950F8042CCB
:1002D00051F8043C82FA4CF582EA0305A5FA8CF544
:1002E000002DE8D02DBAB5FA85F424F0070423FADE
:1002F00004F122FA04F202F0FF0001F0FF01FDE830
:100300000445A0EB010070474FEAC40420F003004D
:1003100050F8082B21F0030151F8083B0CFA04F4C3
:1003200062EA040263EA0403C9E710F003041AD086
:10033000A1EB040120F00300E40750F8042B06D0E1
:100340000FD28B785FFAA2F4E41A06D12BB1CB78E6
:100350005FFAB2F4E41A00D11BB920465DF8104BE5
:10036000704701F1040150F8042BCC0721F0030180
:1003700051F8043B48D824D222F07F4482FA4CF54D
:1003800094EA1325A5FA8CF50AD165B951F8043B16
:1003900084EA0204B4EB036F0ED150F8042BEBE7B0
:1003A0004FEA132355E035F07F454DD10878FDE83D
:1003B0000445C0F1000070474FEA126203F0FF03EA
:1003C00047E002EA1C4482FA4CF594EA1345A5FA88
:1003D0008CF50AD165B951F8043B84EA0204B4EB08
:1003E000034F0CD150F8042BEBE74FEA134330E0F6
:1003F00015EA1C4528D10B884FEA124229E04FEA42
:10040000124203EA1C4324E002F0FF0482FA4CF596
:1004100094EA1365A5FA8CF50AD165B951F8043B45
:1004200084EA0204B4EB032F09D150F8042BEBE764
:100430004FEA13630DE015F0FF0F05D10B684FEA8B
:10044000122223F07F4304E04FF00000FDE8044552
:10045000704712BA1BBA82FA4CF482EA0304A4FA77
:100460008CF5B5FA85F402FA04F203FA04F34FEAC4
:100470001260FDE80445A0EB1360704781F0004175
:1004800002E000BF83F0004330B54FEA41044FEA79
:10049000430594EA050F08BF90EA020F1FBF54EA14
:1004A000000C55EA020C7FEA645C7FEA655C00F0B0
:1004B000E2804FEA5454D4EB5555B8BF6D420CDD81
:1004C0002C4480EA020281EA030382EA000083EA04
:1004D000010180EA020281EA0303362D88BF30BDA4
:1004E00011F0004F4FEA01314FF4801C4CEA1131FA
:1004F00002D0404261EB410113F0004F4FEA033359
:100500004CEA133302D0524263EB430394EA050FE3
:1005100000F0A780A4F10104D5F1200E0DDB02FA52
:100520000EFC22FA05F2801841F1000103FA0EF2E6
:10053000801843FA05F359410EE0A5F120050EF1AC
:10054000200E012A03FA0EFC28BF4CF0020C43FADD
:1005500005F3C01851EBE37101F0004507D54FF0EA
:10056000000EDCF1000C7EEB00006EEB0101B1F53A
:10057000801F1BD3B1F5001F0CD349085FEA300080
:100580004FEA3C0C04F101044FEA445212F5800F8B
:1005900080F09A80BCF1004F08BF5FEA500C50F128
:1005A000000041EB045141EA050130BD5FEA4C0C0B
:1005B000404141EB0101013C28BFB1F5801FE9D268
:1005C00091F0000F04BF01460020B1FA81F308BF8B
:1005D0002033A3F10B03B3F120020CDA0C3208DD57
:1005E00002F1140CC2F10C0201FA0CF021FA02F132
:1005F0000CE002F11402D8BFC2F1200C01FA02F1A2
:1006000020FA0CFCDCBF41EA0C019040E41AA2BFC6
:1006100001EB0451294330BD6FEA04041F3C1CDA8E
:100620000C340EDC04F11404C4F1200220FA04F0AE
:1006300001FA02F340EA030021FA04F345EA030158
:1006400030BDC4F10C04C4F1200220FA02F001FA1A
:1006500004F340EA0300294630BD21FA04F029469C
:1006600030BD94F0000F83F4801306BF81F4801135
:100670000134013D4EE77FEA645C18BF7FEA655CA8
:1006800029D094EA050F08BF90EA020F05D054EA7A
:10069000000C04BF1946104630BD91EA030F1EBF7F
:1006A0000021002030BD5FEA545C05D14000494183
:1006B00028BF41F0004130BD14F580043CBF01F576
:1006C000801130BD01F0004545F0FE4141F470015C
:1006D0004FF0000030BD7FEA645C1ABF1946104637
:1006E0007FEA655C1CBF0B46024650EA013406BF38
:1006F00052EA033591EA030F41F4002130BD00BFF7
:1007000090F0000F04BF0021704730B54FF48064B3
:1007100004F132044FF000054FF0000150E700BF34
:1007200090F0000F04BF0021704730B54FF4806493
:1007300004F1320410F0004548BF40424FF0000180
:100740003EE700BF42004FEAE2014FEA31014FEAC3
:1007500002701FBF12F07F4393F07F4F81F0605112
:10076000704732F07F4208BF704793F07F4F04BF5D
:1007700041F40021704730B54FF4607401F000453A
:1007800021F000411CE700BF50EA010208BF70479A
:1007900030B54FF000050AE050EA010208BF70478B
:1007A00030B511F0004502D5404261EB41014FF4F4
:1007B000806404F132045FEA915C3FF4D8AE4FF0FC
:1007C00003025FEADC0C18BF03325FEADC0C18BFDF
:1007D000033202EBDC02C2F1200300FA03FC20FA30
:1007E00002F001FA03FE40EA0E0021FA02F114447D
:1007F000BDE600BF70B54FF0FF0C4CF4E06C1CEA96
:1008000011541DBF1CEA135594EA0C0F95EA0C0F06
:1008100000F0DEF82C4481EA030621EA4C5123EA79
:100820004C5350EA013518BF52EA033541F48011A8
:1008300043F4801338D0A0FB02CE4FF00005E1FB5B
:1008400002E506F00042E0FB03E54FF00006E1FBA5
:1008500003569CF0000F18BF4EF0010EA4F1FF04E8
:10086000B6F5007F64F5407404D25FEA4E0E6D4128
:1008700046EB060642EAC62141EA55514FEAC52039
:1008800040EA5E504FEACE2EB4F1FD0C88BFBCF5B5
:10089000E06F1ED8BEF1004F08BF5FEA500E50F166
:1008A000000041EB045170BD06F0004646EA01012C
:1008B00040EA020081EA0301B4EB5C04C2BFD4EB5E
:1008C0000C0541EA045170BD41F480114FF0000E57
:1008D000013C00F3AB8014F1360FDEBF002001F0C5
:1008E000004170BDC4F10004203C35DA0C341BDC3F
:1008F00004F11404C4F1200500FA05F320FA04F011
:1009000001FA05F240EA020001F0004221F0004144
:1009100010EBD37021FA04F642EB06015EEA430EB7
:1009200008BF20EAD37070BDC4F10C04C4F12005E7
:1009300000FA04F320FA05F001FA04F240EA02009A
:1009400001F0004110EBD37041F100015EEA430E6B
:1009500008BF20EAD37070BDC4F1200500FA05F28B
:100960004EEA020E20FA04F301FA05F243EA02030A
:1009700021FA04F001F0004121FA04F220EA020019
:1009800000EBD3705EEA430E08BF20EAD37070BD5F
:1009900094F0000F0FD101F00046400041EB01013F
:1009A00011F4801F08BF013CF7D041EA060195F021
:1009B000000F18BF704703F00046520043EB0303DB
:1009C00013F4801F08BF013DF7D043EA06037047C8
:1009D00094EA0C0F0CEA135518BF95EA0C0F0CD0D3
:1009E00050EA410618BF52EA4306D1D181EA030119
:1009F00001F000414FF0000070BD50EA410606BF13
:100A00001046194652EA430619D094EA0C0F02D157
:100A100050EA013613D195EA0C0F05D152EA03369C
:100A20001CBF104619460AD181EA030101F00041BA
:100A300041F0FE4141F470014FF0000070BD41F003
:100A4000FE4141F4780170BD70B54FF0FF0C4CF4DD
:100A5000E06C1CEA11541DBF1CEA135594EA0C0FFC
:100A600095EA0C0F00F0A7F8A4EB050481EA030E49
:100A700052EA03354FEA013100F088804FEA033330
:100A80004FF0805545EA131343EA12634FEA0222FE
:100A900045EA111545EA10654FEA00260EF00041BF
:100AA0009D4208BF964244F1FD0404F5407402D211
:100AB0005B084FEA3202B61A65EB03055B084FEAA2
:100AC00032024FF480104FF4002CB6EB020E75EB9F
:100AD000030E22BFB61A754640EA0C005B084FEAC7
:100AE0003202B6EB020E75EB030E22BFB61A754644
:100AF00040EA5C005B084FEA3202B6EB020E75EB8F
:100B0000030E22BFB61A754640EA9C005B084FEA06
:100B10003202B6EB020E75EB030E22BFB61A754613
:100B200040EADC0055EA060E18D04FEA051545EA02
:100B300016754FEA06164FEAC30343EA52734FEAAB
:100B4000C2025FEA1C1CC0D111F4801F0BD141EA24
:100B500000014FF000004FF0004CB6E711F4801F89
:100B600004BF01430020B4F1FD0C88BFBCF5E06F69
:100B70003FF6AFAEB5EB030C04BFB6EB020C5FEA79
:100B8000500C50F1000041EB045170BD0EF0004ECE
:100B90004EEA113114EB5C04C2BFD4EB0C0541EA00
:100BA000045170BD41F480114FF0000E013C90E6FD
:100BB00045EA060E8DE60CEA135594EA0C0F08BFC1
:100BC00095EA0C0F3FF43BAF94EA0C0F0AD150EAC0
:100BD00001347FF434AF95EA0C0F7FF425AF104653
:100BE00019462CE795EA0C0F06D152EA03353FF47B
:100BF000FDAE1046194622E750EA410618BF52EAF8
:100C000043067FF4C5AE50EA41047FF40DAF52EACB
:100C100043057FF4EBAE12E74FF0FF3C06E000BF68
:100C20004FF0010C02E000BF4FF0010C4DF804CD75
:100C30004FEA410C7FEA6C5C4FEA430C18BF7FEA35
:100C40006C5C1BD001B050EA410C0CBF52EA430C63
:100C500091EA030F02BF90EA020F0020704710F1E3
:100C6000000F91EA030F58BF994208BF90422CBF72
:100C7000D8176FEAE37040F0010070474FEA410C6B
:100C80007FEA6C5C02D150EA013C07D14FEA430C89
:100C90007FEA6C5CD6D152EA033CD3D05DF8040BFA
:100CA000704700BF8446104662468C46194663462C
:100CB00000E000BF01B5FFF7B7FF002848BF10F103
:100CC000000F01BD4DF808EDFFF7F4FF0CBF012048
:100CD00000205DF808FB00BF4DF808EDFFF7EAFFC4
:100CE00034BF012000205DF808FB00BF4DF808ED7F
:100CF000FFF7E0FF94BF012000205DF808FB00BF74
:100D00004DF808EDFFF7CEFF94BF012000205DF8FD
:100D100008FB00BF4DF808EDFFF7C4FF34BF01200A
:100D200000205DF808FB00BF4FEA410C7FEA6C5CD5
:100D300002D150EA013C0AD14FEA430C7FEA6C5CD5
:100D400002D152EA033C02D14FF0000070474FF04D
:100D5000010070474A0011D212F5001211D20DD5D0
:100D60006FF47873B3EB62520ED44FEAC12343F0B1
:100D7000004343EA505323FA02F070474FF000005B
:100D8000704750EA013002D14FF0FF3070474FF00A
:100D90000000704753B94AB9002908BF00281CBF9A
:100DA0004FF0FF314FF0FF3000F0E2B8ADF1080C2A
:100DB0006DE904CE04F0EEFBDDF804E0DDE902238A
:100DC00004B0704700F1340191E838009C46A64613
:100DD0004CF8045D90E8FF0FE54600BD90EC210B58
:100DE000704700BF80EC210B704700BF90EC200BD8
:100DF000704700BF80EC200B704700BFD0EC200B89
:100E0000704700BFC0EC200B704700BFF0EC020140
:100E1000F0EC0211F0EC0221F0EC0231F0EC0241B6
:100E2000F0EC0251F0EC0261F0EC0271F0EC0281A6
:100E3000F0EC0291F0EC02A1F0EC02B1F0EC02C196
:100E4000F0EC02D1F0EC02E1F0EC02F1704700BFEF
:100E5000E0EC0201E0EC0211E0EC0221E0EC0231F6
:100E6000E0EC0241E0EC0251E0EC0261E0EC0271E6
:100E7000E0EC0281E0EC0291E0EC02A1E0EC02B1D6
:100E8000E0EC02C1E0EC02D1E0EC02E1E0EC02F1C6
:100E9000704700BFB0FC0181B0FC0191B0FC01A122
:100EA000B0FC01B1704700BFA0FC0181A0FC019122
:100EB000A0FC01A1A0FC01B1704700BFEC4600B549
:100EC0002DE900502DE9FF1F4FF000032DE90C0024
:100ED00001A904F019FEDDF840E012B0704700BF30
:100EE000EC4600B52DE900502DE9FF1F4FF000033F
:100EF0002DE90C0001A904F043FEDDF840E012B03A
:100F0000704700BFEC4600B52DE900502DE9FF1FEA
:100F10004FF000032DE90C0001A904F053FEDDF8A9
:100F200040E012B0704700BFEC4600B52DE900501C
:100F30002DE9FF1F4FF000032DE90C0001AB04F079
:100F400017FEDDF840E012B0704700BFEC4600B578
:100F50002DE900502DE9FF1F4FF000032DE90C0093
:100F600001AA04F083FEDDF840E012B0704700BF34
:100F7000704700BF844641EA000313F003036DD1BC
:100F8000403A41D351F8043B40F8043B51F8043B4C
:100F900040F8043B51F8043B40F8043B51F8043B53
:100FA00040F8043B51F8043B40F8043B51F8043B43
:100FB00040F8043B51F8043B40F8043B51F8043B33
:100FC00040F8043B51F8043B40F8043B51F8043B23
:100FD00040F8043B51F8043B40F8043B51F8043B13
:100FE00040F8043B51F8043B40F8043B51F8043B03
:100FF00040F8043B51F8043B40F8043B51F8043BF3
:1010000040F8043B403ABDD2303211D351F8043B92
:1010100040F8043B51F8043B40F8043B51F8043BD2
:1010200040F8043B51F8043B40F8043B103AEDD241
:101030000C3205D351F8043B40F8043B043AF9D292
:10104000043208D0D2071CBF11F8013B00F8013B65
:1010500001D30B8803806046704700BF082A13D372
:101060008B078DD010F003038AD0C3F10403D21A8A
:10107000DB071CBF11F8013B00F8013B80D331F8BE
:10108000023B20F8023B7BE7043AD9D3013A11F83E
:10109000013B00F8013BF9D20B7803704B784370A9
:1010A0008B7883706046704710B5054C237833B950
:1010B000044B13B10448AFF300800123237010BD2B
:1010C0002006002000000000B465000808B5034BAE
:1010D0001BB103490348AFF3008008BD00000000C6
:1010E00024060020B465000800E0401A8842FCDABB
:1010F0007047024601200A2303E0013003EB83031B
:101100005B009342F9DD704703464FF6FF704A1EBD
:10111000D2B289B110B413F8011BC4B26140074CBC
:1011200034F8111081EA10201146013AD2B2002998
:10113000F1D15DF8044B7047704700BFD0650008DF
:101140008B5C437001EB020C9CF8013083709CF8BF
:1011500002C080F803C0032B00D07047BCF1020F1F
:1011600009D01144CB78C3720B7983724B794372E7
:101170008B790372F1E71144CB78C3710B798371DA
:101180007047038801339BB20380B3F57A7F19D38C
:1011900003790133DBB203713B2B04D900230371C4
:1011A000C3780133C370C3783B2B04D90023C370C9
:1011B0008378013383708378172B01D900238370E0
:1011C000002303807047016001994161C360009B67
:1011D000036182609DF808300371704730B491F864
:1011E00000C0134CA4FB0C3C4FEA5C1C037903FBCE
:1011F0000CFC036802EB420203F802C091F801C044
:10120000A4FB0C3C4FEA5C1C037903FB0CFC531C55
:10121000056805F803C08B78A4FB03135B0901790B
:1012200001FB03F3016802328B5430BC704700BFEE
:101230001F85EB5110F0010F02D101EBC000704788
:10124000C1EBC000083080B2704700002DE9F04FBC
:1012500083B004460E46836893F800804B4BA3FB93
:1012600008239B080193B8F15F0F02D9013BDBB261
:101270000193002300937EE0D4F810B0414630463D
:10128000FFF732FFF9B2C0B2FFF7D4FF024659466A
:101290002046FFF7A3FF01370135072D3FDC01236F
:1012A000AB4019EA030FE7D0D4F80CB04146304602
:1012B000FFF71AFFF9B2C0B2FFF7BCFF024659466A
:1012C0002046FFF78BFFE6E700252F46E5E7D4F839
:1012D00010B041463046FFF707FFF9B2C0B2FFF742
:1012E000A9FF024659462046FFF778FF013701352E
:1012F000072D14DC0123AB4019EA030FE7D0D4F823
:101300000CB041463046FFF7EFFEF9B2C0B2FFF72E
:1013100091FF024659462046FFF760FFE6E7013697
:10132000B6B20AF1010ABAF1040F0CDC6369009A43
:1013300002EB8202134413F80A9016F0010FC3D097
:1013400000250127D4E701250EE0276941463046F4
:10135000FFF7CAFEE9B2C0B2FFF76CFF024639469A
:101360002046FFF73BFF0135082DEEDD0136B6B212
:10137000009B01330093019B009A934202DD4FF0E2
:10138000000AD0E703B0BDE8F08F00BFABAAAAAA5D
:1013900020385B2800F2CA80DFE810F0A400C80003
:1013A000C800C800C800C800C800C800C800C800FD
:1013B000AC00A600C800A800AE00AA00B400B600A9
:1013C000B800BA00BC00BE00C000C200C400C60025
:1013D000B000C800C800C800C800C800C8005C0051
:1013E000CA005E00600062006400660068006A0077
:1013F0006C006E00700072007400760078007A0055
:101400007C007E00800082008400860088008A00C4
:101410008C00C800C800C800C800C800C8009200FE
:10142000C80094009C00C800C800A000C800C80004
:10143000C8009A00C8009800C8009E00C800C800F4
:101440009600C800C8008E009000C800C800A20026
:10145000C800B20037487047374870473748704770
:1014600037487047374870473748704737487047A4
:101470003748704737487047374870473748704794
:101480003748704737487047374870473748704784
:101490003748704737487047374870473748704774
:1014A0003748704737487047374870473748704764
:1014B0003748704737487047374870473748704754
:1014C0003748704737487047374870473748704744
:1014D0003748704737487047374870473748704734
:1014E0003748704737487047374870473748704724
:1014F0003748704737487047374870473748704714
:101500003748704737487047374870473748704703
:1015100037487047374870473748704737487047F3
:1015200037487047374870473748704725487047F5
:1015300036487047180000202800002030000020A6
:10154000380000204000002048000020500000200B
:10155000580000206000002068000020700000207B
:1015600078000020800000208800002090000020EB
:1015700098000020A0000020A8000020B00000205B
:10158000B8000020C0000020C8000020D0000020CB
:10159000D8000020E00000200801002010010020F9
:1015A000E8000020F000002000010020A801002039
:1015B000A001002090010020F800002098010020E8
:1015C000880100203C060020780100202001002036
:1015D00080010020000000200800002010000020F2
:1015E00018010020280100203001002038010020CF
:1015F0004001002048010020500100205801002037
:1016000060010020680100207001002020000020FF
:1016100038B5054614460846FFF7BAFE002306E033
:10162000696904EB84021144C25CCA540133042B7F
:10163000F6DD38BD2DE9F04180460F4615461E46C1
:10164000144608E0A4EB050CE2B217F80C10404673
:10165000FFF7DEFF01347219A242F3DCBDE8F0812E
:101660002DE9F04F2DED048B87B001900C46934689
:101670000846FFF73EFD471E4FF0000A3FE02046B8
:10168000FFF73EF804460D463846FFF749F841ECAF
:10169000180B9FED2F9B41EC110BB0EE490AF0EEB9
:1016A000690A02F0F1FE53EC102B20462946FFF7A1
:1016B000CBF9FFF74FFBC6B206AB534403F8106CEF
:1016C000B0EE481AF0EE681AB0EE490AF0EE690A78
:1016D00002F0DAFE59EC108B3046FFF721F8424653
:1016E0004B46FFF787F802460B4620462946FEF791
:1016F000C9FEFFF72FFB04460AF1010A013F002F44
:10170000BDDC154BA3FB0423DB0803EB8303A4EB35
:10171000430306AA524402F8103C00240EE006AB34
:10172000234413F8101C3031C9B203F8101C0BEB22
:101730000402D2B20198FFF76BFF0134A245EEDA42
:1017400007B0BDEC048BBDE8F08F00BFAFF30080A5
:101750000000000000002440CDCCCCCCB5EEC00A87
:10176000F1EE10FA00DC704770B52DED028B0546E6
:101770000E46FDEEC08AB8EEE88A30EE488A9FED4C
:10178000120A28EE008ABDEEC88A18EE900AFFF70A
:10179000B0FCC4B22346324618EE901A2846FFF732
:1017A0005FFF3444E4B20123224608492846FFF78C
:1017B00041FF621C0223D2B218EE101A2846FFF72E
:1017C0004FFFBDEC028B70BD0000C842D06700081F
:1017D0002DE9F04383B0054602AB03E906009DF80E
:1017E00005306BB34FF00009012B4FD19DF802403B
:1017F0000C2C28D90C3CE4B25FFA89F7584EA6FBB2
:101800000436F6083A4606F130012846FFF700FF95
:1018100006EB8606A4EB460606F130017A1CC9B237
:101820002846FFF7F5FE07F1080250212846FFF78A
:10183000EFFE07F109024D212846FFF7E9FE44E0DB
:101840004FF00109D0E75FFA89F7454EA6FB043651
:10185000F6083A4606F130012846FFF7D9FE06EBB6
:101860008601A4EB410130317A1CC9B22846FFF74A
:10187000CFFE07F1080241212846FFF7C9FE07F114
:1018800009024D212846FFF7C3FE1EE09DF80260C5
:101890005FFA89F7324CA4FB0634E4083A4604F1B7
:1018A00030012846FFF7B4FE04EB8404A6EB4404A1
:1018B00004F130017A1CC9B22846FFF7A9FE07F1EE
:1018C000080220212846FFF7A3FE9DF803805FFA57
:1018D00089F6234CA4FB0837FF0809F1030207F13E
:1018E00030012846FFF794FE07EB8707A8EB470770
:1018F00007F13001321DC9B22846FFF789FE9DF875
:101900000470A4FB0734E408B21D04F1300128463A
:10191000FFF77EFE04EB8401A7EB41013031F21D9D
:10192000C9B22846FFF774FE17F0010F0CD1B21CA4
:101930003A212846FFF76CFE721D3A212846FFF730
:1019400067FE03B0BDE8F083B21C20212846FFF7F4
:101950005FFE721D20212846FFF75AFEF1E700BF07
:10196000CDCCCCCC38B505460C1E16DD00222B2183
:10197000FFF74EFE03222A212846FFF749FE0422E4
:1019800043212846FFF744FE002C12DBE1B202237C
:1019900001222846FFF764FE38BD00222D21FFF703
:1019A00037FEE7E7013424B20131C9B2002CF9DB7C
:1019B000EDE70021FAE70000F8B505460C461646AB
:1019C0001F4691ED010AF2EE047AB4EEE70AF1EE59
:1019D00010FA21D501222021FFF71AFE022194EDF1
:1019E000010A2846FFF7BAFE012E20D0022E25D08C
:1019F000B6B1D4ED017A94ED027AF4EEC77AF1EE45
:101A000010FA22DB94ED037AF4EEC77AF1EE10FAC5
:101A10001BD5069BEB6020E00121FFF79FFEE3E76B
:101A2000082307220F492846FFF704FEE1E70823B1
:101A300007220D492846FFF7FDFDDAE708230722B4
:101A40000A492846FFF7F6FDD3E794ED037AF4EE52
:101A5000C77AF1EE10FA01DBEF60F8BD079BEB608F
:101A6000FBE700BFD4670008E0670008EC670008E8
:101A700082B000230193019B0133019302B07047B0
:101A800070B42E4EB45CF55C9DF80C30F25C01EB4A
:101A90004101E443ED43D243294B03EB011303F12E
:101AA000614101F580114E01830003EB4113E90907
:101AB00046F82010A90919646909C3F8801029099A
:101AC000C3F8C010E908C3F80011A908C3F8401111
:101AD0006908C3F88011C3F8C051E109C3F80012C6
:101AE000A109C3F840126109C3F880122109C3F8A3
:101AF000C012E108C3F80013A108C3F8401361083D
:101B0000C3F88013C3F8C043D109C3F80014910986
:101B1000C3F840145109C3F880141109C3F8C01464
:101B2000D108C3F800159108C3F840155108C3F84F
:101B30008015C3F8C02570BC704700BFF867000867
:101B40002808002070B582B005688268531C836045
:101B5000AA5C5C1C8460EB5C661C86602C5D45683E
:101B6000AE4206D0009489B2007BFFF789FF02B035
:101B700070BD00258560F5E72F4B4FF400529A6148
:101B80002E4B9B6BB3F5C06F02D010B5002448E01C
:101B900000202A4B98632A4A136823F0010313603C
:101BA000284B19680B6823F001030B60264B19685A
:101BB0000B6823F001030B60244B19680B6823F0BA
:101BC00001030B60224B1B68D96821F48071D96036
:101BD000D96821F40071D960D96821F48061D96095
:101BE0001C490968D1625062012151616FF0010105
:101BF0001961D96841F00101D960136843F001030C
:101C00001360154B1A68154B9A610B4B4FF000523D
:101C10009A6170470121094800EB0410FFF792FF19
:101C20000134022CF6D9054A936B01339363024BBE
:101C30004FF000529A6110BD000C0240EC070020EA
:101C4000000001404C0700208C060020EC0600201C
:101C500044060020E8070020B401002000080240EC
:101C600038B500254F4B83F830500CE04D4C04EB59
:101C700005140021A1602046FFF764FF01212046E2
:101C8000FFF760FF0135022DF0D9474B1B68474A2B
:101C9000934245D9583A4FF46061D160444A106884
:101CA000424A904252D9583A4FF46061D160414A59
:101CB00011683E4A91425FD9583A4FF46014D4609B
:101CC00030225A6042604A603B490A686FF01F0048
:101CD00010611A6842F001021A60354B1A681368E5
:101CE00043F001031360334B1A68136843F0010398
:101CF00013600B68DA6842F48072DA60DA6842F4E2
:101D00000072DA60DA6842F48062DA602B4A1268A4
:101D1000013A2B494A621A6842F001021A6038BD42
:101D2000284A934205D902F552724FF460619160DE
:101D3000B4E7254A934204D9583A4FF46061D16020
:101D4000ACE7224A4FF460619160A7E71D4A9042D8
:101D500005D902F552724FF460619160A7E71A4A03
:101D6000904204D9583A4FF46061D1609FE7174A16
:101D70004FF4606191609AE7124A914205D902F5E9
:101D800052724FF4601494609AE70F4A914204D95A
:101D9000583A4FF46014D46092E70C4A4FF4601440
:101DA00094608DE7EC0700204C0700205864024047
:101DB0008C060020EC06002044060020E4070020EA
:101DC00000000140B86002405860024000600240DC
:101DD00010B582B00E4B9B6BB3F5C06F01D00024E1
:101DE0000EE000200090034602460146FFF748FE41
:101DF0000CE00021064800EB0410FFF7A3FE0134BD
:101E0000022CF6D9024A936B0133936302B010BDE2
:101E1000EC07002070B588B000250195194C236BA4
:101E200043F004032363236B03F004030193019B3A
:101E30000F230393012604960595069503A91248DE
:101E400001F062F80295236B43F008032363236BD0
:101E500003F008030293029B049605950223069360
:101E60004FF400430393A4F5305403A9204601F036
:101E70004BF84FF40053039303A9204601F044F8B4
:101E800008B070BD00380240000802402DE9F04F54
:101E900083B000250195464B1A6B42F480021A6309
:101EA0001B6B03F480030193019B424C4FF0400AEB
:101EB000C4F808A0E56025614FF4805363614FF4D6
:101EC000804BC4F818B04FF48079C4F81C904FF4DC
:101ED0004038C4F820804FF0406767606562032691
:101EE000A662E5622563344B2360204600F092FE33
:101EF000204600F029FE3023304A3149204600F0C8
:101F0000BBFE304CC4F808A0E5604FF48063236149
:101F10004FF4006363614FF40053A361C4F81C9055
:101F2000C4F8208067606562A662E5622563264B7F
:101F30002360204600F06EFE204600F005FE3023B0
:101F4000224A2349204600F097FE224CC4F808A0FC
:101F5000E56025614FF480536361C4F818B0C4F89C
:101F60001C90C4F8208067606562A662E562256304
:101F7000194B2360204600F04DFE184BE363184BCD
:101F80002364184BE364204600F0DEFD2A46294610
:101F90003A2000F0FFFC3A2000F034FD3023074ADD
:101FA0001149204600F08CFE03B0BDE8F08F00BF61
:101FB000003802404C0700208864024018080240A4
:101FC000B00100208C060020286402401A0802405C
:101FD00028080020EC06002040640240791B00081D
:101FE000D11D0008711A0008B40100202DE9F0414C
:101FF00082B000240194354B5A6C42F001025A64BD
:102000005B6C03F001030193019B314B1A68130AC7
:102010003049A1FB03131B092F490B602F49A1FB7A
:102020000212D20A2E490A6003EB83014A002D49AD
:10203000A1FB0201CF082C49A1FB0212D6082B4DAF
:102040002B4A2A60EB606C616C602C61AC602846A6
:1020500001F09AFD22462146192000F09BFC192030
:1020600000F0D0FC23494FF06008C1F800808C607C
:102070004F60CC600C612246284601F0E9FD1E4904
:10208000C1F800808C604E60CC600C614C618C614A
:102090000422284601F0DCFD284601F0E5FB21463C
:1020A000284601F053FE2B68196A41F211121142C1
:1020B00008D1196A40F24442114203D11A6822F051
:1020C00001021A6002B0BDE8F08100BF0038024092
:1020D000E0010020598B4F01E4070020B5814E1B21
:1020E000E8070020398EE338898888884406002074
:1020F00000000140AC070020C807002010B5054CC7
:102100004FF40043A361044800F010FE4FF0004379
:10211000A36110BD000C0240EC06002010B5054C78
:102120004FF40053A361044801F0E1FB4FF000536A
:10213000A36110BD000C0240440600200A480023A1
:1021400043630A4A13600A4B1B68D96821F00101F6
:10215000D96008490968D162012151616FF001021B
:102160001A6180F830107047EC0700200000014031
:1021700044060020E407002008B5FFF74BFEFFF7F8
:1021800085FEFFF733FF024B012283F8302008BDA4
:10219000EC07002008B5064B93F8313003B908BDB1
:1021A000034B002283F83120FFF75AFDF7E700BF09
:1021B000EC07002008B50D4B01221A730C4A1A6077
:1021C0004FF410625A6002221A770A4A1A614FF4D9
:1021D000C0625A61002283F82C20074A1A624FF429
:1021E00040725A62FFF7C8FF08BD00BFEC0700202D
:1021F00088080020881100208817002008B5064BA9
:1022000093F8303003B908BD034B012283F8312025
:10221000FFF7C0FFF7E700BFEC0700202DE9F04112
:1022200088B00024039404940594069407940094C1
:10223000294B1A6B42F004021A631A6B02F0040273
:102240000092009A01941A6B42F001021A631A6B11
:1022500002F001020192019A02941A6B42F0080204
:102260001A631B6B03F008030293029BDFF8748070
:1022700022464FF47041404600F038FF174F224687
:102280004FF40051384600F031FF154E224612211E
:10229000304600F02BFF4FF4704303930125049563
:1022A0000594069403A9404600F02EFE4FF4005317
:1022B000039304950594069403A9384600F024FE80
:1022C0001223039304950594069403A9304600F065
:1022D0001BFE08B0BDE8F081003802400008024053
:1022E00000000240000C024000B585B090F850306C
:1022F0008DF8003090F851308DF8013090F855305D
:102300008DF8023090F854308DF8033090F8573043
:102310008DF8043090F856308DF805300621684667
:10232000FEF7F2FE8DF80600C0F307208DF80700D7
:102330004FF47A7308226946024801F0CCFE05B0DA
:102340005DF804FB781F002008B500F0FFFA0B4A87
:10235000138801339BB2138041F28732934205D92F
:10236000064B00221A80064B01221A70054A136898
:10237000013313600448FEF704FF08BDBE200020AF
:10238000C0200020101B0020A420002072B6FEE711
:1023900008B50A480A4B03604FF416534360002304
:1023A0008360C36003610C2242618361C36101F0F9
:1023B00063FE00B908BDFFF7E9FF00BF781F0020EA
:1023C0000044004000B583B00023009301930D4802
:1023D0000D4A0260436083604FF6FF72C260836102
:1023E00001F0A6FB50B9002300930193694605480C
:1023F00001F02EFD20B903B05DF804FBFFF7C6FF26
:10240000FFF7C4FF301F00200010004000B595B05A
:102410003022002108A801F075FF002303930493E4
:102420000593069307930193204A116C41F0805164
:102430001164126C02F080520192019A02931C4ABC
:10244000116841F480411160126802F480420292E6
:10245000029A0A22089201220B9210210C910D92ED
:1024600002220E920F9308231093A8231193129225
:102470000423139308A800F03FFE98B90F23039399
:1024800002230493002305934FF4A05306934FF4C3
:1024900080530793052103A801F07CF820B915B0FB
:1024A0005DF804FBFFF772FFFFF770FF0038024092
:1024B0000070004070B584B08349002001F002FF35
:1024C00000F02AFAFFF7A2FFFFF7A8FEFFF760FF70
:1024D00001227E497E4801F085FEFFF773FFFFF77A
:1024E00069FE282502957B4B01937B4C00947B4B26
:1024F0007B4A7C497C48FEF766FE02957B4B019344
:1025000000947B4B7B4A7C497C48FEF75CFE02953D
:102510007B4B019300947B4B7B4A7C497C48FEF7C4
:1025200052FE7C4B7C4A1A6000237C4A53717C4AE1
:10253000652111707B4951604FF07A5191607A4961
:10254000D16003E0794A0F21D154013340F2FE32C9
:102550009342F7DD764B1B78002B35D1754B1B78FA
:10256000002B63D1744B1A68744B1B689A42F1D9E3
:102570005D4E734B01935E4B0093584B714A12783A
:1025800067493046FFF718FA644B5C4D93E8060044
:102590002846FFF71DF95E4C6B4BB3F9001020463F
:1025A000FFF7E0F900213046FEF750FE00212846F3
:1025B000FEF74CFE00212046FEF748FEFFF71EFE08
:1025C0005D4B00221A60C5E7604C00223F4904F1D0
:1025D0006000FEF7B5FDB4F85430013B062B0AD875
:1025E000DFE803F0040F09141A091F00574BB3F872
:1025F00066204B4B5A820023554A13804C4A137075
:10260000ACE7524B9A6E464B5A60F4E74F4BB3F827
:102610006620434B1A82EEE74C4B9A6E404B9A6011
:10262000E9E74A4B9A6E3E4BDA60E4E70122022169
:10263000484800F05BFD454B652283F8502003229B
:1026400083F85120444B1B78042B38D8DFE803F083
:1026500003181F272F003D4B0122A3F85420A3F895
:1026600056203A48FFF740FE0022324B1A700221F2
:10267000384800F03BFD384A13780133137071E796
:10268000324B0222A3F85420A3F85620E9E72F4B3F
:102690000422A3F854200122A3F85620E1E72B4B93
:1026A0000522A3F854200222A3F85620D9E7274B8D
:1026B0000722A3F854200222A3F85620D1E7264B84
:1026C00000221A70CDE700BFF8680008AC20002097
:1026D000781F0020D81F00202C1B0020D0010020D4
:1026E000C401002088080020C01F00203C200020DA
:1026F000DC010020C80100208811002024200020D7
:1027000088200020BC010020CC0100208817002078
:1027100070200020D8010020AE47A13FA420002057
:10272000181B00209A99193E0000A03F301B002082
:10273000BC200020C0200020101B0020B801002079
:10274000C0010020BC1F0020D4010020881A0020F6
:10275000BE20002000000240141B002082B0002197
:1027600000910B4B5A6C42F480425A645A6C02F44A
:1027700080420092009A01911A6C42F080521A64D1
:102780001B6C03F080530193019B02B0704700BFA4
:10279000003802400268094B9A4200D0704782B06C
:1027A00000230193064B1A6C42F010021A641B6C52
:1027B00003F010030193019B02B07047001000402A
:1027C0000038024000B58BB00023059306930793B1
:1027D000089309930368284A934205D0274A9342F5
:1027E00026D00BB05DF804FB00210191244B5A6CFC
:1027F00042F010025A645A6C02F010020192019ADF
:1028000002911A6B42F001021A631B6B03F0010381
:102810000293029B4FF4C0630593022306930323A4
:1028200008930723099305A9164800F06DFBD8E724
:1028300000210391124B1A6C42F400321A641A6C94
:1028400002F400320392039A04911A6B42F00102DF
:102850001A631B6B03F001030493049B0C23059381
:1028600002230693032308930723099305A9054828
:1028700000F04AFBB5E700BF0010014000440040F3
:102880000038024000000240FEE7FEE7FEE7FEE7F8
:10289000FEE77047704770470120704708B501F0A8
:1028A000E7FC162303604FF0FF3008BD08B54FF07A
:1028B000FF31FFF7F3FFFEE7034AD2F8883043F415
:1028C0007003C2F88830704700ED00E010B5044690
:1028D0000E4B18784FF47A73B3FBF0F30C4A106880
:1028E000B0FBF3F000F09CF868B90F2C01D901207F
:1028F0000AE0002221464FF0FF3000F04BF8054B74
:102900001C60002000E0012010BD00BFE401002099
:10291000E0010020E801002008B50B4B1A6842F4E2
:1029200000721A601A6842F480621A601A6842F4EF
:1029300080721A60032000F01BF80F20FFF7C6FF1B
:10294000FFF70CFF002008BD003C0240034A11685D
:10295000034B1B780B441360704700BFC42000205A
:10296000E4010020014B1868704700BFC42000201C
:10297000074AD36823F4E0631B041B0C000200F435
:10298000E060034343F0BF6343F40033D360704718
:1029900000ED00E000B5194BDB68C3F30223C3F17F
:1029A000070CBCF1040F28BF4FF0040C03F1040E18
:1029B000BEF1060F18D9033B4FF0FF3E0EFA0CFC98
:1029C00021EA0C0199400EFA03F322EA03031943AA
:1029D00000280BDB0901C9B200F1604000F561403D
:1029E00080F800135DF804FB0023E5E700F00F001A
:1029F0000901C9B2024B1954F4E700BF00ED00E031
:102A000014ED00E0002807DB00F01F02400901235D
:102A10009340024A42F82030704700BF00E100E0D6
:102A20000138B0F1807F0BD24FF0E0235861054AA6
:102A3000F02182F823100020986107221A61704764
:102A40000120704700ED00E030B405682C6824F4E4
:102A500080242C60046863608368402B05D0036881
:102A600099600368DA6030BC704703689A60036855
:102A7000D960F8E710B40368D9B210390C4AA2FB48
:102A8000014212090B4CA25CC2655F2909D923F4EB
:102A90007F7323F0030304338365806D5DF8044B7B
:102AA000704723F47F7323F003038365F5E700BFCA
:102AB000ABAAAAAA14690008836A826992B9012B99
:102AC0000AD0022B02D00BB100207047C36A13F06A
:102AD000807F28D100207047C36AB3F1C07F24D023
:102AE00000207047B2F5005F09D0022B25D9032BD7
:102AF00025D1C36A13F0807F23D100207047032BB8
:102B000003D8DFE803F01404140A00207047C36AF6
:102B100013F0807F0DD100207047C36AB3F1C07FEE
:102B200009D0002070470120704701207047012024
:102B30007047012070470120704701207047002036
:102B4000704701207047000070B50446FFF70AFF88
:102B5000002C5BD00546022384F83530002384F82E
:102B600034302268136823F00103136023681A6865
:102B700012F0010F0AD0FFF7F5FE431B052BF5D924
:102B800020236365032084F8350070BD1A6820484F
:102B900010406168A2680A43E1680A4321690A4358
:102BA00061690A43A1690A43E1690A43216A0A4348
:102BB0000243616A04291ED01A602668756925F0EF
:102BC0000705636A1D43042B07D1A36A1D43E36A0B
:102BD0001BB12046FFF770FF90B975612046FFF7E3
:102BE00049FFE26D3F23934083600020606501232D
:102BF00084F83530C9E7E16A206B01430A43DBE71B
:102C000040236365012084F83500BEE70120BCE75E
:102C10003F8010F000282DD038B5054690F83500DB
:102C2000C0B2022825D02A68136823F0010313607C
:102C30002B6800241C602B685C602B689C602B68F0
:102C4000DC602B681C612B6821225A612846FFF743
:102C500011FFEC632C646C64AC64EC642C65EA6D6D
:102C60003F23934083606C6585F8354085F8344098
:102C7000204638BD0120704738B5044690F834002E
:102C800001281BD0012084F8340094F83500C0B22C
:102C9000012804D0002384F83430022038BD0220FB
:102CA00084F83500002565652046FFF7CDFE2268D3
:102CB000136843F0010313602846EFE70220EDE7B5
:102CC00038B50446856D90F8340001282BD00120DA
:102CD00084F8340094F83500C0B2012804D00023F1
:102CE00084F83430022038BD022084F835000020FA
:102CF00060652046FFF7A8FEE26D3F239340AB607E
:102D00002268136843F016031360236C23B1226812
:102D1000136843F0080313602268136843F001034B
:102D200013600020DFE70220DDE70000F0B583B08C
:102D3000044600230193724B1D68724BA3FB0535BB
:102D4000AD0A876D3E68C26D08239340334210D0B0
:102D500003681A6812F0040F0BD01A6822F00402FC
:102D60001A60C26D08239340BB60436D43F00103BA
:102D70004365E26D01239340334209D022685269D2
:102D800012F0800F04D0BB60636D43F002036365F3
:102D9000E26D04239340334209D02268126812F096
:102DA000020F04D0BB60636D43F004036365E26D02
:102DB00010239340334224D02268126812F0080F87
:102DC0001FD0BB6023681A6812F4802F0DD01B68D7
:102DD00013F4002F04D1236C9BB12046984710E0D8
:102DE000A36C73B1204698470BE01A6812F4807FF9
:102DF00003D11A6822F008021A60236C0BB1204636
:102E00009847E26D20239340334255D022681268E0
:102E100012F0100F50D0BB6094F83530DBB2052BA8
:102E20000ED023681A6812F4802F33D01B6813F475
:102E3000002F2AD1636C002B3ED0204698473BE000
:102E40002268136823F0160313602268536923F085
:102E500080035361236CA3B12268136823F0080335
:102E60001360E26D3F239340BB60012384F835304B
:102E7000002384F83430236D002B3FD02046984740
:102E80003CE0A36C002BE7D1EBE7E36BA3B120465A
:102E9000984711E01A6812F4807F09D11A6822F06D
:102EA00010021A60012384F83530002384F834308E
:102EB000E36B0BB120469847636DFBB1636D13F074
:102EC000010F17D0052384F835302268136823F0EA
:102ED00001031360019B01330193AB4204D82368C3
:102EE0001B6813F0010FF5D1012384F8353000235E
:102EF00084F83430E36C0BB12046984703B0F0BD42
:102F0000E0010020B5814E1B00230F2B00F2E4806E
:102F100070B582B060E085685E000324B44025EAA5
:102F20000405CC68B4402C438460456825EA02055A
:102F30004C68C4F300129A402A4342605AE0DC080D
:102F4000083450F8246003F0070295000F22AA40CD
:102F500026EA020E0A69AA4042EA0E0240F824203C
:102F60005CE0072200E0002202FA0EF22A4302345B
:102F70005A4D45F824205A4A14686FEA0C0224EA94
:102F80000C054E6816F4803F01D04CEA0405544C01
:102F90002560646802EA04054E6816F4003F01D01B
:102FA0004CEA04054E4C6560A46802EA04054E68CC
:102FB00016F4801F01D04CEA0405494CA560E46872
:102FC00022404D6815F4001F01D04CEA0402444C25
:102FD000E26001330F2B7DD801229A400C6804EA8D
:102FE000020C32EA0404F4D14C6804F00304013CFE
:102FF000012C90D94A6802F00302032A09D0C46860
:103000005D000322AA4024EA02048A68AA402243FF
:10301000C2604A6802F00302022A90D004684FEAB4
:10302000430E032202FA0EF224EA02044A6802F076
:10303000030202FA0EF2224302604A6812F4403F91
:10304000C7D000220192274A546C44F4804454644F
:10305000526C02F480420192019A9C08A51C1F4AFE
:1030600052F8255003F003024FEA820E0F2202FAB3
:103070000EF225EA02051C4A90423FF474AF02F5B5
:10308000806290421AD002F58062904218D002F518
:103090008062904216D002F58062904214D002F510
:1030A0008062904212D002F58062904210D002F508
:1030B000806290423FF455AF082255E7012253E762
:1030C000022251E703224FE704224DE705224BE796
:1030D000062249E702B070BD704700BF00380140CA
:1030E000003C014000380240000002400AB181610A
:1030F0007047090481617047002800F0E08170B5D5
:1031000082B00446036813F0010F3BD09F4B9B68CD
:1031100003F00C03042B2CD09C4B9B6803F00C0396
:10312000082B21D06368B3F5803F4FD0B3F5A02FB3
:1031300052D0964B1A6822F480321A601A6822F430
:1031400080221A606368002B50D0FFF70BFC054605
:103150008E4B1B6813F4003F14D1FFF703FC401B98
:103160006428F5D90320B1E1884B5B6813F4800F24
:10317000D8D0864B1B6813F4003F03D06368002B44
:1031800000F09F81236813F0020F54D07F4B9B689F
:1031900013F00C0F3ED07D4B9B6803F00C03082B03
:1031A00033D0E368002B68D0794B01221A60FFF717
:1031B000D9FB0546754B1B6813F0020F54D1FFF77E
:1031C000D1FB401B0228F5D903207FE16F4A136829
:1031D00043F480331360B5E76C4B1A6842F48022E5
:1031E0001A601A6842F480321A60ABE7FFF7BAFB44
:1031F0000546664B1B6813F4003FC3D0FFF7B2FBD4
:10320000401B6428F5D9032060E1604B5B6813F430
:10321000800FC6D15D4B1B6813F0020F03D0E3682B
:10322000012B40F05081594A136823F0F8032169BB
:1032300043EAC1031360236813F0080F42D06369A7
:103240006BB3534B0122C3F8802EFFF78BFB05466F
:103250004E4B5B6F13F0020F34D1FFF783FB401B23
:103260000228F5D9032031E1484A136823F0F80316
:10327000216943EAC1031360DDE7454B00221A6070
:10328000FFF770FB0546414B1B6813F0020FD2D0CD
:10329000FFF768FB401B0228F5D9032016E13C4BE1
:1032A0000022C3F8802EFFF75DFB0546374B5B6FAE
:1032B00013F0020F06D0FFF755FB401B0228F5D98B
:1032C000032003E1236813F0040F77D02F4B1B6C0E
:1032D00013F0805F33D1002301932C4B1A6C42F022
:1032E00080521A641B6C03F080530193019B0125EB
:1032F000284B1B6813F4807F23D0A368012B34D0A4
:10330000052B38D0214B1A6F22F001021A671A6F71
:1033100022F004021A67A368002B3DD0FFF722FBBE
:1033200006461A4B1B6F13F0020F46D1FFF71AFB2C
:10333000801B41F288339842F3D90320C6E0002570
:10334000D6E7144A136843F480731360FFF70AFB4F
:103350000646104B1B6813F4807FCED1FFF702FBAB
:10336000801B0228F5D90320B0E0084A136F43F010
:1033700001031367CFE7054B1A6F42F004021A6787
:103380001A6F42F001021A67C5E700BF0038024019
:103390000000474200700040FFF7E4FA0646524B37
:1033A0001B6F13F0020F08D0FFF7DCFA801B41F20D
:1033B00088339842F3D9032088E0EDB9A369002B44
:1033C00000F08380484A926802F00C02082A51D02B
:1033D000022B17D0454B00221A66FFF7C3FA0446AA
:1033E000414B1B6813F0007F42D0FFF7BBFA001B74
:1033F0000228F5D9032069E03B4A136C23F080537F
:103400001364DBE7394B00221A66FFF7ABFA054677
:10341000354B1B6813F0007F06D0FFF7A3FA401B63
:103420000228F5D9032051E0E369226A1343626A56
:1034300043EA8213A26A5208013A43EA0243E26A6B
:1034400043EA0263284A5360284B01221A66FFF7B9
:1034500089FA0446244B1B6813F0007F06D1FFF75E
:1034600081FA001B0228F5D903202FE000202DE06F
:1034700000202BE0012B2BD01B4B5B6803F4800159
:10348000E269914226D103F03F02216A8A4223D1A8
:10349000616A47F6C0721A40B2EB811F1ED103F475
:1034A0004031A26A5208013AB1EB024F18D103F041
:1034B0007063E26AB3EB026F14D1002006E00120D2
:1034C0007047012002E0012000E0002002B070BD42
:1034D0000120FBE70120F9E70120F7E70120F5E7EC
:1034E0000120F3E70120F1E70038024000004742E5
:1034F00008B5254B9B6803F00C03042B3FD0082B29
:103500003FD1214B5A6802F03F025B6813F4800FF1
:1035100012D01D4B5968C1F388111C480023A1FB30
:103520000001FDF737FC184B5B68C3F3014301331F
:103530005B00B0FBF3F025E0134B5968C1F3881C26
:103540004FEA4C11B1EB0C006EEB0E0E4FEA8E13EE
:1035500043EA90638101091A63EB0E03DB0043EA3F
:103560005173C90011EB0C0C43F1000399020023C5
:103570004FEA8C2041EA9C51FDF70CFCD3E703484D
:1035800000E0034808BD00BF0038024040787D01DC
:103590000024F400002800F09B8070B50D4604461E
:1035A0004F4B1B6803F007038B4208D2CBB24C4A47
:1035B0001370136803F007038B4240F08B8023687D
:1035C00013F0020F17D013F0040F04D0454A93688C
:1035D00043F4E0539360236813F0080F04D0414A8A
:1035E000936843F4604393603E4A936823F0F0038A
:1035F000A1680B439360236813F0010F32D0636816
:10360000012B21D09A1E012A25D9364A126812F0C0
:10361000020F61D033498A6822F0030213438B60A2
:10362000FFF7A0F906462F4B9B6803F00C03626876
:10363000B3EB820F16D0FFF795F9801B41F2883368
:103640009842F0D9032042E0264A126812F4003F63
:10365000E0D101203BE0234A126812F0007FD9D16B
:10366000012034E01E4B1B6803F00703AB4207D96F
:10367000EAB21B4B1A701B6803F00703AB422DD153
:10368000236813F0040F06D0164A936823F4E0531E
:10369000E1680B439360236813F0080F07D0114AC9
:1036A000936823F46043216943EAC1039360FFF701
:1036B0001FFF0C4B9B68C3F303130B4AD35CD8402A
:1036C0000A4B18600A4B1868FFF700F9002070BD1C
:1036D000012070470120FAE70120F8E70120F6E712
:1036E000003C024000380240FC680008E001002075
:1036F000E8010020014B1868704700BFE00100207E
:1037000008B5FFF7F7FF044B9B68C3F38223034A16
:10371000D35CD84008BD00BF003802400C690008E7
:1037200008B5FFF7E7FF044B9B68C3F34233034A36
:10373000D35CD84008BD00BF003802400C690008C7
:1037400030B4036A23F001030362036A42688469A8
:1037500024F073040D682C4323F0020C8B6843EAB9
:103760000C03104DA84203D005F58065A84205D191
:1037700023F00803CD682B4323F00403094DA8422E
:1037800003D005F58065A84205D122F440724D6949
:103790002A438D692A43426084614A684263036216
:1037A00030BC70470000014030B4036A23F48073DA
:1037B0000362036A4268C46924F0730C0C6844EA2B
:1037C0000C0523F400738C6843EA0423114CA042D7
:1037D00003D004F58064A04206D123F40063CC68D2
:1037E00043EA042323F480630A4CA04203D004F587
:1037F0008064A04207D122F440524C6942EA04128C
:103800008C6942EA04124260C5614A68C26303627D
:1038100030BC70470000014030B4036A23F4805389
:103820000362036A4468C26922F4E6420D6842EA10
:10383000052223F400538D6843EA0533094DA8425D
:1038400003D005F58065A84204D124F480444D6975
:1038500044EA85144460C2614A680264036230BC71
:10386000704700BF0000014090F83D30DBB2012BF3
:1038700032D1022380F83D300368194A934220D0A8
:10388000B3F1804F1DD0A2F57C42934219D002F5CE
:103890008062934215D002F58062934211D002F506
:1038A000784293420DD002F57052934209D0A2F5AE
:1038B0009432934205D01A6842F001021A60002047
:1038C00070479A6802F00702062A07D01A6842F089
:1038D00001021A60002070470120704700207047E5
:1038E000000001407047704770477047704710B53F
:1038F000044603681A6912F0020F11D0DA6812F058
:10390000020F0DD06FF002021A61012303770368E2
:103910009B6913F0030F70D0FFF7E6FF00232377B6
:1039200023681A6912F0040F12D0DA6812F0040F3B
:103930000ED06FF004021A610223237723689B697B
:1039400013F4407F5FD02046FFF7CEFF002323779C
:1039500023681A6912F0080F12D0DA6812F0080F03
:103960000ED06FF008021A61042323772368DB6905
:1039700013F0030F4ED02046FFF7B6FF0023237746
:1039800023681A6912F0100F12D0DA6812F0100FC3
:103990000ED06FF010021A61082323772368DB69C9
:1039A00013F4407F3DD02046FFF79EFF002323778E
:1039B00023681A6912F0010F03D0DA6812F0010FC0
:1039C00036D123681A6912F0800F03D0DA6812F03A
:1039D000800F34D123681A6912F0400F03D0DA68DF
:1039E00012F0400F32D123681A6912F0200F03D071
:1039F000DA6812F0200F30D110BDFFF774FF2046B7
:103A0000FFF773FF8AE72046FFF76DFF2046FFF7B9
:103A10006CFF9BE72046FFF766FF2046FFF765FF38
:103A2000ACE72046FFF75FFF2046FFF75EFFBDE7EC
:103A30006FF001021A612046FEF780FBC1E76FF0CC
:103A400080021A61204600F04AFAC3E76FF0400294
:103A50001A612046FFF74AFFC5E76FF020021A619E
:103A6000204600F03BFAC7E70368304A904212D084
:103A7000B0F1804F0FD0A2F57C4290420BD002F5FE
:103A80008062904207D002F58062904203D002F536
:103A90007842904203D123F070034A681343234ACB
:103AA00090422AD0B0F1804F27D0A2F57C429042BC
:103AB00023D002F5806290421FD002F580629042CE
:103AC0001BD002F57842904217D002F57052904216
:103AD00013D002F5806290420FD002F580629042CE
:103AE0000BD0A2F59832904207D002F58062904246
:103AF00003D002F58062904203D123F44073CA6878
:103B0000134323F080034A69134303608B68C36245
:103B10000B688362054B984203D003F5806398429B
:103B200001D10B6903630123436170470000014029
:103B300040B310B5044690F83D30F3B1022384F849
:103B40003D30214651F8040BFFF78EFF012384F826
:103B5000463084F83E3084F83F3084F8403084F8B2
:103B6000413084F8423084F8433084F8443084F89B
:103B7000453084F83D30002010BD80F83C30FEF721
:103B800009FEDBE70120704740B310B5044690F80A
:103B90003D30F3B1022384F83D30214651F8040B47
:103BA000FFF762FF012384F8463084F83E3084F842
:103BB0003F3084F8403084F8413084F8423084F853
:103BC000433084F8443084F8453084F83D30002098
:103BD00010BD80F83C30FFF785FEDBE70120704721
:103BE00030B4036A23F010030362036A44688269F5
:103BF00022F4E6420D6842EA052223F020038D6894
:103C000043EA0513114DA84203D005F58065A8428B
:103C100006D123F08003CD6843EA051323F0400367
:103C20000A4DA84203D005F58065A84207D124F4C7
:103C300040644D6944EA85048D6944EA8504446022
:103C400082614A688263036230BC704700000140B1
:103C500038B590F83C30012B66D004460D46012360
:103C600080F83C300C2A5AD8DFE802F0075959593D
:103C70001B5959593059595944000068FFF760FDE4
:103C80002268936943F0080393612268936923F0E3
:103C9000040393612268936929690B4393610020AF
:103CA0003EE00068FFF79CFF2268936943F40063DD
:103CB00093612268936923F4806393612268936916
:103CC000296943EA01239361002029E00068FFF796
:103CD0006BFD2268D36943F00803D3612268D3697E
:103CE00023F00403D3612268D36929690B43D361AC
:103CF000002015E00068FFF78FFD2268D36943F4C8
:103D00000063D3612268D36923F48063D36122689E
:103D1000D369296943EA0123D361002000E001202F
:103D2000002384F83C3038BD0220FCE701F01F017D
:103D3000012303FA01FC036A23EA0C030362036A0A
:103D400002FA01F10B4303627047000010B504460C
:103D50000846002942D194F83E30DBB2013B18BF3F
:103D60000123002B6ED1002851D1022384F83E306C
:103D7000012201462068FFF7D9FF2368334A9342A6
:103D800003D002F58062934203D15A6C42F40042A0
:103D90005A6423682D4A934249D0B3F1804F46D0EC
:103DA000A2F57C42934242D002F5806293423ED01B
:103DB00002F5806293423AD002F57842934236D0BF
:103DC00002F57052934232D0A2F5943293422ED033
:103DD0001A6842F001021A60002032E0042908D07B
:103DE00008290DD094F84130DBB2013B18BF012304
:103DF000B7E794F83F30DBB2013B18BF0123B0E7CF
:103E000094F84030DBB2013B18BF0123A9E7042836
:103E100005D0082807D0022384F84130A8E7022300
:103E200084F83F30A4E7022384F84030A0E79A6882
:103E300002F00702062A07D01A6842F001021A604F
:103E4000002010BD0120FCE70020FAE7000001403F
:103E500090F83C30012B3DD010B4012380F83C3069
:103E6000022380F83D3003685A689C6822F0700C89
:103E70000A6842EA0C025A600368174A93421AD051
:103E8000B3F1804F17D0A2F57C42934213D002F5D4
:103E9000806293420FD002F5806293420BD002F50C
:103EA0007842934207D002F57052934203D0A2F5B4
:103EB0009432934204D124F080044A6814439C60F5
:103EC000012380F83D30002380F83C3018465DF82F
:103ED000044B704702207047000001407047704754
:103EE00038B504460268136923F44053C1680B4394
:103EF000136183680269134342691343C2691A4319
:103F00000168CB6823F4164323F00C031343CB6002
:103F10000268536923F4407381690B43536103685A
:103F2000314A934206D002F58062934202D0FFF7F5
:103F3000E7FB01E0FFF7F4FBE369B3F5004F29D09D
:103F40000021031849411B1841F10001C90041EA51
:103F50005371DB00181863684FEA83024FEA9373CA
:103F600041F10001FCF716FF204DA5FB003251097D
:103F7000642303FB11031B013233A5FB03235B09FD
:103F800003F0F00202EB011203F00F032168134467
:103F90008B6038BD0023021843EB0301121841F176
:103FA0000001C90041EA5271D200101841F100012C
:103FB000626892185B41FCF7EDFE0C4DA5FB0032E8
:103FC0005109642303FB1103DB003233A5FB0323F8
:103FD0005B095A0002F4F87202EB011203F00703C6
:103FE000216813448B60D4E7001001401F85EB511A
:103FF0002DE9F84305460F4616469946DDF8208020
:104000002C68246837EA04030CBF4FF0010C4FF012
:10401000000CB4452DD1B8F1FF3FF1D0B8F1000F3D
:1040200005D0FEF79FFCA0EB09004045E8D92A68BF
:1040300002F10C0353E8003F23F4D0730C3242E842
:1040400000310029F3D12A6802F1140353E8003F3C
:1040500023F00103143242E800310029F3D1202378
:1040600085F83D3085F83E30002385F83C3003204C
:1040700000E00020BDE8F88358B310B5044690F87E
:104080003D300BB3242384F83D302268D36823F4F9
:104090000053D3602046FFF723FF2268136923F4FF
:1040A000904313612268536923F02A035361226805
:1040B000D36843F40053D36000202064202384F8A5
:1040C0003D3084F83E3010BD80F83C30FEF77AFB7E
:1040D000D8E7012070472DE9F04182B01E4690F8E4
:1040E0003D30DBB2202B54D104460D4690460029CA
:1040F00053D0002A53D090F83C30012B51D00123EB
:1041000080F83C3000230364212380F83D30FEF723
:1041100029FC0746A4F82480A4F82680A368B3F5F8
:10412000805F05D04FF00008002384F83C3012E097
:10413000236913B14FF00008F6E7A8460025F3E71E
:1041400038F8023B2268C3F308035360E28C92B252
:10415000013A92B2E284E38C9BB273B100963B4683
:10416000002280212046FFF743FFE0B9002DE7D071
:1041700015F8012B23685A60E8E700963B460022B9
:1041800040212046FFF734FF78B9202384F83D30E2
:1041900000E0022002B0BDE8F0810120FAE7012032
:1041A000F8E70220F6E70320F4E70320F2E70346EE
:1041B00081628285C28500201864222283F83E2015
:1041C00083F83C001968CA6842F48072CA601968B2
:1041D0004A6942F001024A611A68D36843F0200339
:1041E000D360704708B590F83E30DBB2202B0DD17C
:1041F00071B17AB190F83C30012B0DD0012380F8D9
:104200003C3000230363FFF7D2FF00E0022008BD2B
:104210000120FCE70120FAE70220F8E7DFF834D0BC
:104220000D480E490E4A002302E0D458C45004330E
:10423000C4188C42F9D30B4A0B4C002301E01360E5
:104240000432A242FBD3FEF737FB00F017F8FEF76B
:1042500031F97047000002200000002020060020F5
:10426000586A000820060020D0200020FEE7000049
:10427000014B1868704700BFEC01002070B50D4E6F
:104280000D4D761BB61006D0002455F8043B0134C2
:104290009847A642F9D1094E094D761B02F08AF9DA
:1042A000B61006D0002455F8043B01349847A642C6
:1042B000F9D170BD4C6A00084C6A0008546A0008C5
:1042C0004C6A000841B110B50C4620460A49FBF77C
:1042D0006BFF18B9094810BD0848704707492046C8
:1042E000FBF762FF0028F5D005492046FBF75CFF8D
:1042F0000028EFD0002010BD2469000820690008C4
:10430000F4670008830730B548D0541E002A3FD018
:10431000CAB2034601E0013C3AD303F8012B9D07E2
:10432000F9D1032C2DD9CDB245EA05250F2C45EA4C
:10433000054536D9A4F1100222F00F0C03F1200E2E
:10434000E6444FEA121C03F1100242E9045542E927
:10435000025510327245F8D10CF1010214F00C0F25
:1043600003EB021204F00F0C13D0ACF1040323F0A2
:1043700003030433134442F8045B9342FBD10CF073
:1043800003042CB1CAB21C4403F8012B9C42FBD19C
:1043900030BD64461346002CF4D1F9E703461446B9
:1043A000BFE71A46A446E0E7024B13B1024800F00B
:1043B0001FB8704700000000BD43000838B5084B27
:1043C000084D5B1B9C1007D0043B1D44013C55F875
:1043D00004399847002CF9D1BDE8384002F0F0B814
:1043E000586A0008546A0008704700BF704700BF51
:1043F000002301461A46184600F000B82DE9F047A0
:10440000DFF880A00646DAF8000098460F4691468D
:10441000FFF7EAFF1A4B1B68D3F8484124B36568DD
:104420001F2D26DC5EB96B1C0235DAF800006360D4
:1044300044F82570FFF7DAFF0020BDE8F08704EBB1
:1044400085010123C1F88890D4F88821AB401A4334
:10445000022EC4F88821C1F80881E4D1D4F88C2157
:104460001343C4F88C31DEE703F5A674C3F8484162
:10447000D5E7DAF80000FFF7B9FF4FF0FF30DCE7CF
:104480001C69000818060020F8B52DED028B57ECCA
:10449000106B55EC114B00F0CBF8634BB0EE408A3B
:1044A000F0EE608A93F9003001332AD022462B4681
:1044B00020462946FCF738FC18BB32463B463046BE
:1044C0003946FCF731FC002844D100220023304655
:1044D0003946FCF7F7FBD8B10022002320462946D5
:1044E000FCF7F0FB00283DD145EC104B00F010FF2D
:1044F00038B12046294600220023FCF7EDFB0028B6
:104500005CD1B0EE480AF0EE680ABDEC028BF8BD53
:10451000B0EE480AF0EE680A00F0FAFE58B351EC2B
:10452000180B00220023FCF7CDFB0028E9D047EC54
:10453000106B00F0EDFE0028E3D045EC104B00F0CE
:10454000E7FE0028DDD0FFF793FE22239FED2E8BA0
:104550000360D6E72046294600220023FCF7B2FB81
:104560000028CED09FED2A8BB0EE480AF0EE680A04
:10457000BDEC028BF8BD47EC106B00F0C9FE0028C3
:10458000CDD045EC104B00F0C3FE0028C7D053EC53
:10459000182B18EE100A1946FCF7C6FB20BBFFF7D4
:1045A00067FE034622221A60304639460022002365
:1045B000FCF792FB48B99FED188BA2E7FFF758FE76
:1045C00021239FED178B03609BE745EC104B00F018
:1045D000B3FE204653EC102B2946FCF773FB002852
:1045E000E9D19FED0F8B8CE7FFF742FE00220023FD
:1045F0002121016010461946FCF726FA41EC180B00
:104600007FE700BFAFF30080000000000000000063
:10461000000000000000F03F000000000000F07FFC
:10462000000000000000F0FF1C0600200000000059
:104630002DE9F04F57EC116B2DED0C8B27F0004A54
:104640005AEA060287B03DD055EC104B724925F06E
:104650000048884510EE102AA9462CDC11EE103ACD
:10466000BB4636D08A4526DC6B498A4521D0B9F154
:10467000000F39DB00210091002B51D1664B9A4588
:1046800000F0A280654B9A4500F0B080BBF1804FEE
:1046900000F0C084624B9B4542D1B9F1000F3FDB73
:1046A00045EC104B07B0BDEC0C8BBDE8F04F00F0B3
:1046B00059BD002BDBD008F1404808F5801858EAB6
:1046C000020309D19FED500B07B0BDEC0C8BBDE888
:1046D000F08F0CB9C245C7DD524807B0BDEC0C8B5A
:1046E000BDE8F04F00F020BE4F498A4500F38580B9
:1046F000A1F154718A450FDD4FEA2A51A1F2FF3131
:10470000142940F39B84C1F1340123FA01F000FA2B
:1047100001F1994200F0ED8400210091002BB1D00D
:1047200045EC104B029200F0E9FD029A5ABBB8F139
:10473000000F04D0394B29F040429A4223D1BBF1FB
:10474000000F07DA53EC102B34490020FCF77CF9FA
:1047500041EC100BB9F1000FB6DA009B08F14048AC
:1047600008F5801858EA030340F08D8453EC102BB1
:1047700010461946FBF786FE02460B46FCF764F925
:1047800041EC100BA0E7009A4FEAD973013B049368
:10479000134335D0254B9A454CDD03F104739A45FC
:1047A000234B40F3DB83984540F36083BBF1000F5C
:1047B00040F3608316A3D3E9002310461946FCF7A3
:1047C00019F841EC100B7FE708F1404303F5801323
:1047D00013433FF477AF164B984540F37A83BBF110
:1047E000000FC0F2478347EC106B6DE7BBF1000F81
:1047F000C0F21A8445EC104B66E7022100913BE7BA
:1048000022462B46B4E700BF000000000000F03F46
:104810009C7500883CE4377E0000F07F0000F03F8C
:104820000000E03FF4670008FFFF3F430000E04165
:10483000FFFFEF3FE44B09EA0303002253B951ECB9
:10484000100BE24BFBF7D6FF41EC100B10EE908AF9
:104850006FF034024FEA2853A3F2FF339A18DC4B6F
:104860000592C8F3130848F07F54984544F4401467
:1048700007DDD84B984540F3148401320592A4F526
:1048800080149FEDB96B9FEDBA7B53EC162BB0EE05
:1048900047CAF0EE67CA0025B0EE47DAF0EE67DAF5
:1048A0005BEC10ABA3465046594643EC1A2BFBF782
:1048B000E9FD53EC1A2B8046894650465946FBF7D2
:1048C000E3FD02460B460020C349FCF7BDF841EC6E
:1048D0001B0B404653EC1B2B4946FBF78BFF41EC6F
:1048E000180B0A460146CDE902120021029164101C
:1048F0004BEC19AB44F00054DDE902AB04F50023A6
:104900000020591904460D4602460B4650465946AA
:10491000FBF770FF02460B4640464946FBF7B2FDE7
:1049200053EC1A2B8046894620462946FBF7AAFD00
:1049300002460B4651EC190BFBF7A4FD52465B46B1
:10494000FBF758FF02460B4640464946FBF79AFDE7
:1049500053EC1B2BFBF74EFF53EC182B41EC190BC0
:1049600051EC180BFBF746FF83A3D3E90023044661
:104970000D46FBF73FFF82A3D3E90023FBF784FD3D
:1049800022462B46FBF736FF7FA3D3E90023FBF734
:104990007BFD22462B46FBF72DFF7DA3D3E90023A9
:1049A000FBF772FD22462B46FBF724FF7AA3D3E9DF
:1049B0000023FBF769FD22462B46FBF71BFF78A37C
:1049C000D3E90023FBF760FD2246804689462B464B
:1049D00020462946FBF70EFF02460B464046494655
:1049E000FBF708FF524604460D465B4651EC180B98
:1049F000FBF74AFD53EC192BFBF7FCFE22462B4636
:104A0000FBF742FD5246804689465B465046594672
:104A1000FBF7F0FE02460B4643EC1A2B6F4B0022CD
:104A2000FBF732FD42464B46FBF72EFD00240D46B8
:104A300022462B4650465946FBF7DCFE674B824622
:104A40008B46002220462946FBF71CFD53EC1A2B0F
:104A5000FBF718FD02460B4640464946FBF712FDA0
:104A600053EC182BFBF7C6FE22462B4604460D4698
:104A700051EC190BFBF7BEFE02460B4620462946B9
:104A8000FBF702FD8046894642464B465046594652
:104A9000FBF7FAFC44A3D3E90023002004460D46AB
:104AA000FBF7A8FE524641EC190B5B46204629460F
:104AB000FBF7E8FC02460B4640464946FBF7E2FCA2
:104AC0003BA3D3E90023FBF795FE02460B462046A5
:104AD000294614461D4638A3D3E90023FBF78AFE76
:104AE00002460B4620462946FBF7CEFC53EC1D2B15
:104AF000FBF7CAFC804605988946FBF711FE424643
:104B000082468B464B4651EC190BFBF7BDFC53EC30
:104B10001C2BFBF7B9FC52465B46FBF7B5FC524633
:104B20005B46002004460D46FBF7ACFC53EC1C2B07
:104B3000FBF7A8FC53EC192BFBF7A4FC02460B4631
:104B400040464946FBF79EFC009B049A013B1343F9
:104B500082468B4640F0B6819FED197BB0EE478AC6
:104B6000F0EE678A3CE000BF000000000000F03F6C
:104B70000000000000000000EF4E454A287ECA3FBA
:104B800065DBC9934A86CD3F01411DA96074D13FC1
:104B90004D268F515555D53FFFAB6FDBB66DDB3FD3
:104BA000033333333333E33F000000E009C7EE3F04
:104BB000FD033ADC09C7EE3FF5015B14E02F3EBE72
:104BC000000000000000F0BF0000F07F0000404344
:104BD0008E98030079B60B000000F03F00000840FB
:104BE0000023CDE900670093DDE9008930464246A5
:104BF0004B463946FBF746FC22462B46FBF7FAFDAF
:104C000032463B4606460F4650465946FBF7F2FDF4
:104C100002460B4630463946FBF736FC42464B46C9
:104C200006460F4620462946FBF7E4FD04460D469E
:104C30002B46304639462246FBF726FCC24B9942AA
:104C4000804689468A4640F3188101F13F4303F5C7
:104C5000E003034340F00782A3A3D3E900233046D7
:104C60003946FBF711FC02460B4640464946904642
:104C7000994622462B46FBF705FC02460B4640466A
:104C80004946FCF747F8002840F0ED81CAF30A5383
:104C90004FF48012A3F2FE3342FA03F35344AB49BC
:104CA000C3F30A52A2F2FF3241FA02FCC3F313012A
:104CB00041F48011C2F1140241FA02F2002023EA09
:104CC0000C01BAF1000F00920B46024602DA00997D
:104CD0004942009120462946FBF7D4FB009B1B0567
:104CE000029302460B4604460D4630463946FBF712
:104CF000CBFB89464FF000087DA3D3E90023404653
:104D00004946FBF777FD22462B4682468B464046B6
:104D10004946FBF7B7FB02460B4630463946FBF7E0
:104D2000B1FB75A3D3E90023FBF764FD74A3D3E9BA
:104D3000002304460D4640464946FBF75BFD02460C
:104D40000B4620462946FBF79FFB06460F46324698
:104D50003B4650465946FBF797FB52465B46044696
:104D60000D46FBF78FFB02460B4630463946FBF7F4
:104D700089FB2246804689462B4620462946FBF77A
:104D800039FD61A3D3E9002306460F46FBF732FD48
:104D90005FA3D3E90023FBF775FB32463B46FBF7E5
:104DA00029FD5DA3D3E90023FBF76EFB32463B46AA
:104DB000FBF720FD5AA3D3E90023FBF763FB324640
:104DC0003B46FBF717FD58A3D3E90023FBF75CFB39
:104DD00032463B46FBF70EFD02460B46204629466F
:104DE000FBF750FB06460F4632463B462046294617
:104DF000FBF700FD02460B463046394616461F4675
:104E000000224FF08043FBF73DFB02460B46304645
:104E10003946FBF719FE424606460F464B462046EA
:104E20002946FBF7E7FC42464B46FBF72DFB0246C3
:104E30000B4630463946FBF725FB22462B46FBF74F
:104E400021FB02460B4600204149FBF71BFB029A5F
:104E50000B461344B3F5801FC0F24381194653EC4F
:104E6000182BFBF7C7FC41EC100B2DE4BBF1000F36
:104E7000FFF6A0AC9FED2E0B26E4DFF8DCC021F09E
:104E80000043634540F3E780324B0B4403430AD1B0
:104E900022462B46FBF7F6FA32463B46FBF730FF3D
:104EA00000283FF4F3AE24A3D3E9002351EC180B00
:104EB000FBF7A0FC20A3D3E90023FBF79BFC41EC0C
:104EC000100B01E49FED1E7BB0EE478AF0EE678A7F
:104ED00086E6BBF1000FCDDA07F1004300EE106A61
:104EE00000EE903AFFF7F0BBFE822B654715973C2A
:104EF00000000000432EE63FEF39FAFE422EE63F67
:104F0000396CA80C615C20BED0A4BE726937663EC5
:104F1000F16BD2C541BDBB3E2CDE25AF6A56113FB9
:104F200093BDBE166CC1663F3E5555555555C53FA0
:104F3000000000000000000059F3F8C21F6EA50138
:104F4000000000000000F03FFFFF8F40FFFF0F0058
:104F50000000F03F00346F3FFFCB9040984585DB69
:104F60007D4B98453FF722AC51EC100B7A4B002259
:104F7000FBF788FA68A3D3E9002304460D46FBF744
:104F800039FC67A3D3E9002382468B462046294695
:104F9000FBF730FC714B41EC180B002220462946F0
:104FA000FBF728FC02460B465FA1D1E90001FBF7A5
:104FB00069FA22462B46FBF71DFC02460B460020F1
:104FC0006749FBF75FFA2246804689462B46204612
:104FD0002946FBF70FFC02460B4640464946FBF7C5
:104FE00009FC53A3D3E90023FBF704FC02460B465C
:104FF00051EC180BFBF746FA8046894642464B4671
:1050000050465946FBF740FA002052465B4604469C
:105010000D4691E522462B4620462946FBF7EAFB42
:1050200041EC100BFFF750BB4B49002022462B46AA
:10503000FBF70AFD41EC100BFFF746BB002B44D1F8
:10504000C1F114014AFA01F000FA01F151455AD0B8
:105050000093FFF717BB424A93425BDCDDE9001285
:105060000291009146E634A3D3E9002351EC180BDA
:10507000FBF7C0FB30A3D3E90023FBF7BBFB41ECFC
:10508000100BFFF721BB009B012B7FF41DAB10EE33
:10509000901A10EE102A01F1004343EC102BFFF799
:1050A00013BB9FED277BB0EE47CAF0EE67CA9FEDBA
:1050B000267BB0EE47DAF0EE67DA9FED257B4FF402
:1050C000802553EC172BFFF7EBBB45EC104B009200
:1050D00000F014F9009A002A7FF492AB0092FFF7D7
:1050E00026BB41EC100B009800F0C2F951EC100BFC
:1050F000B5E600F00100C0F102010091002B3FF481
:10510000C1AAFFF70DBB00F00100C0F1020300933C
:10511000FFF7B8BA1B15BBE5000000604715F73F65
:1051200044DF5DF80BAE543E555555555555D53FAA
:10513000FE822B654715F73F9C7500883CE4377E5F
:105140000000004003B8E23F06D0CF43EBFD4C3EE9
:10515000000000000000F83F0000F03F0000D03FDA
:105160000000E03F2DE9F041634A55EC104BAA43A3
:1051700000F09F80002D10EE10CA2B4654DD29153B
:1051800063D0C3F31303A1F2FF37C90743F48013BD
:1051900004D45B0003EBDC734FEA4C0C4FEADC7287
:1051A000002602EB43037F104FEA4C0C4FF0160E23
:1051B00034464FF40012A118994202DC5B1A8C1895
:1051C00016445B00BEF1010E03EBDC734FEA5202A2
:1051D0004FEA4C0CEFD1754620204FF000420AE018
:1051E00044D04FEADC71013801EB43034FEA4C0C29
:1051F0004FEA520243D0A34202EB0E01F0DD002938
:1052000001EB020E0ADBA0461B1B614588BF03F1C0
:10521000FF33ACEB010C15444446E2E7BEF1000F4E
:10522000F1DB04F10108EFE725F00042224338D01A
:10523000002D4ED129464FEADC22153913464FEA9C
:105240004C5C002AF7D0D60250D400205B00DD026F
:10525000044600F10100F9D51A4663460CFA00FC39
:10526000C0F12000C340091B13438AE76145B8D849
:10527000002901EB020ED1DB98460023C9E753EA6F
:105280000C0310D168087110F30701F17F5101F58B
:10529000001148BF40F0004001EB0753024643ECC9
:1052A000102BBDE8F0816A1C16BF681C013640084F
:1052B000E9E710EE102A10EE100A2B462946FBF7FC
:1052C00099FA22462B46FBF7DFF841EC100BBDE8BC
:1052D000F08110EE102A20462946FBF7D3F802464B
:1052E0000B46FBF7B1FB41EC100BDAE763462020DD
:1052F0004FF0FF34B6E700BF0000F07F51EC100B19
:1053000010EE102A21F0004343EC102B704700BF31
:1053100082B08DED000B019840F0004000F5801048
:10532000C00F02B0704700BF9FED010B704700BF78
:10533000000000000000F87FF0B553EC102BC3F321
:105340000A5CACF2FF31132910EE100A83B01C4640
:105350004FEAD37E3ADC002930DB424D45FA01FCAE
:1053600003EA0C0515432DD003EA5C0318434FEA0A
:105370005C0C0CD024EA0C0C4FF48024132944FA62
:1053800001F10CBF4FF0004000204CEA0104364907
:1053900001EBCE0E2346DEE90045024629462046B3
:1053A000FBF772F8CDE90001DDE9000122462B464A
:1053B000FBF768F841EC100B03B0F0BD23F000419F
:1053C000114324D143EC102B03B0F0BD332908DD89
:1053D000B1F5806FF6D11946FBF756F841EC100B8A
:1053E000F2E7ACF2134C4FF0FF3121FA0CF10A4214
:1053F000E8D010EA51024FEA5103C8D020EA030373
:105400004FF0804040FA0CFC43EA0C00BFE7C3F3C6
:1054100013031843144A4342034302EBCE0E1B0B03
:10542000620C03F40023520443EA02073B46DEE920
:10543000006710EE102A30463946FBF725F8CDE913
:10544000000132463B46DDE90001FBF71BF804F0A2
:10545000004421F00041024641EA040343EC102BD2
:1054600003B0F0BDFFFF0F0030690008000000002E
:1054700038B553EC102BC3F30A5104469C4689BB44
:1054800010EE101A23F0004C5CEA010129D01946F5
:1054900000223D4B3D4D10EE100AFBF7ABF9AC423C
:1054A00002460B4616DB8C46C1F30A5136392144BD
:1054B00040F2FE70814221DC002947DC11F1350FFA
:1054C00034DA4CF250318C4218DC002B26A1D1E9A1
:1054D000000144DB24A3D3E90023FBF78BF941EC63
:1054E000100B38BD40F2FF708142E0D110EE100A7F
:1054F0001946FAF7C9FF41EC100B38BD002B1CA16F
:10550000D1E9000107DB1AA3D3E90023FBF772F905
:1055100041EC100B38BD18A1D1E9000114A3D3E967
:105520000023FBF767F941EC100BF3E72CF0FF4C7D
:105530002CF4E00C36314CEA015310461946002297
:10554000134BFBF757F941EC100B38BD2CF0FF4C17
:105550002CF4E00C4CEA015343EC102B38BD08A1AD
:10556000D1E90001B6E700BF59F3F8C21F6EA501EB
:105570009C7500883CE4377E9C7500883CE437FECF
:1055800059F3F8C21F6EA58100005043B03CFFFFE5
:105590000000903C2DE9F047089D04468E46002B04
:1055A0004DD18A42944669D9B2FA82F252B101FAD7
:1055B00002F3C2F1200120FA01F10CFA02FC41EAE7
:1055C000030E94404FEA1C48210CBEFBF8F61FFA6C
:1055D0008CF708FB16E341EA034306FB07F1994207
:1055E0000AD91CEB030306F1FF3080F01F819942BA
:1055F00040F21C81023E63445B1AA4B2B3FBF8F094
:1056000008FB103344EA034400FB07F7A7420AD91A
:105610001CEB040400F1FF3380F00A81A74240F242
:1056200007816444023840EA0640E41B00261DB1AD
:10563000D4400023C5E900433146BDE8F0878B42E2
:1056400009D9002D00F0EF800026C5E900013046A1
:105650003146BDE8F087B3FA83F6002E4AD18B427B
:1056600002D3824200F2F980841A61EB0303012025
:105670009E46002DE0D0C5E9004EDDE702B9FFDE11
:10568000B2FA82F2002A40F09280A1EB0C014FEABC
:105690001C471FFA8CFE0126200CB1FBF7F307FB19
:1056A000131140EA01410EFB03F0884208D91CEBBC
:1056B000010103F1FF3802D2884200F2CB80434659
:1056C000091AA4B2B1FBF7F007FB101144EA014438
:1056D0000EFB00FEA64508D91CEB040400F1FF31C7
:1056E00002D2A64500F2BB800846A4EB0E0440EAB5
:1056F00003409CE7C6F12007B34022FA07FC4CEABE
:10570000030C20FA07F401FA06F31C43F9404FEAB0
:105710001C4900FA06F3B1FBF9F8200C1FFA8CFEC5
:1057200009FB181140EA014108FB0EF0884202FA19
:1057300006F20BD91CEB010108F1FF3A80F08880DA
:10574000884240F28580A8F102086144091AA4B297
:10575000B1FBF9F009FB101144EA014100FB0EFE18
:105760008E4508D91CEB010100F1FF346CD28E4547
:105770006AD90238614440EA0840A0FB0294A1EBD8
:105780000E01A142C846A64656D353D05DB1B3EB35
:10579000080261EB0E0101FA07F722FA06F3F14065
:1057A0001F43C5E9007100263146BDE8F087C2F10C
:1057B0002003D8400CFA02FC21FA03F39140014384
:1057C0004FEA1C471FFA8CFEB3FBF7F007FB1036BD
:1057D0000B0C43EA064300FB0EF69E4204FA02F469
:1057E00008D91CEB030300F1FF382FD29E422DD9BC
:1057F000023863449B1B89B2B3FBF7F607FB1633F1
:1058000041EA034106FB0EF38B4208D91CEB010170
:1058100006F1FF3816D28B4214D9023E6144C91AF0
:1058200046EA004638E72E46284605E70646E3E600
:105830001846F8E64B45A9D2B9EB020864EB0C0E0A
:105840000138A3E74646EAE7204694E74046D1E719
:10585000D0467BE7023B614432E7304609E76444C7
:10586000023842E703685A004CBF43F0004323F07C
:1058700000431844704700BF2DE9F84329B34F1E79
:10588000044615463E464FF0000808EB060101EBC2
:10589000D171491004EBC1094846FFF7E3FF034605
:1058A000C80008308F42204409D0AB4209D8FFF726
:1058B000D9FF0138A8420AD201F10108E5E7AB425D
:1058C00005D9884501D04E1EDFE74FF00009484654
:1058D000BDE8F883012807D0022807D0044B002830
:1058E0000CBF1846002070470248704702487047B6
:1058F000995F0008A15F0008A95F000830B5234B3D
:1059000083B004468D1E3BB301A92846AFF3008047
:10591000E8B101992A46FFF7AFFF0146B8B1FFF79A
:10592000A1FF4B68A064012B2CD0002B01F10400D7
:1059300024DBFFF797FF0023C4E913030368002B60
:1059400011DBFFF78FFF2061002003B030BD002383
:105950000920236103B030BD0D4B0E49C91AC9108F
:1059600018460191D6E7C3F30360FFF7B3FF0028A1
:10597000206114BF0020092003B030BD0123C4E919
:105980001303DBE7002323610520DEE700000000AE
:10599000646900084C6A00080368DA0710B5044619
:1059A00006D49B0700F1480009D5FBF71FFA2368CE
:1059B000590709D51A070ED5DB0613D510BDFBF71D
:1059C0000DFA23685907F5D404F1D000FBF716FA55
:1059D00023681A07F0D404F5A870FBF717FA2368B8
:1059E000DB06EBD404F5E870BDE81040FBF752BAD3
:1059F0000346006800B11844704700BF704700BFFD
:105A000070B504460E46316C2046FFF777FF054619
:105A100088B9326C62612369324621460120984779
:105A20000828F0D0072806D12846316CFFF7E6FF9A
:105A3000301DFBF7C7F900F06FFD00BF2DE9F047FF
:105A40000D1DD0F80C80D0F81890074614460FCDE5
:105A5000ADF5727D0DF10C0CACE80F000FCDACE88C
:105A60000F000FCDACE80F0095E80F0002AE4FF02D
:105A7000000E8CE80F00C6F800E020E0336C7B617C
:105A80004FF4F07231467AA8FBF774FA3B697AAAB0
:105A9000394650469847889B73642146CDE9006992
:105AA00005463B463A460120C0470446E0B94FF45C
:105AB000F0727AA93046FBF75DFA082D1AD1316CE5
:105AC0003846FFF71BFF09345FFA84FA05460028C1
:105AD000D4D0B36B73643A46CDE900693B464AF0D3
:105AE00010010120C04700B1092528460DF5727D3F
