:020000040800F2
:1000000000000220711800086D0800086F08000841
:100010007108000873080008750800080000000057
:100020000000000000000000000000007708000849
:1000300079080008000000007B0800087D0800081F
:10004000C1180008C1180008C1180008C11800082C
:10005000C1180008C1180008C1180008C11800081C
:10006000C1180008C1180008C1180008C11800080C
:10007000C1180008C1180008C1180008C1180008FC
:10008000C1180008C1180008C1180008C1180008EC
:10009000C1180008C1180008C1180008C1180008DC
:1000A000C1180008C1180008C1180008C1180008CC
:1000B000C1180008C1180008C1180008C1180008BC
:1000C000C1180008C1180008C1180008C1180008AC
:1000D000C1180008C1180008C1180008C11800089C
:1000E000C1180008C1180008C1180008C11800088C
:1000F000C1180008C1180008C1180008C11800087C
:10010000C1180008C1180008C1180008C11800086B
:10011000C1180008C1180008C1180008C11800085B
:10012000C1180008C1180008C1180008C11800084B
:10013000C1180008C1180008C1180008C11800083B
:10014000C1180008C1180008C1180008C11800082B
:10015000C1180008C1180008C1180008C11800081B
:10016000C1180008C1180008C1180008C11800080B
:10017000C1180008C1180008C118000800000000DC
:08018000C1180008C1180008B5
:1001880053B94AB9002908BF00281CBF4FF0FF31F6
:100198004FF0FF3000F0E2B8ADF1080C6DE904CE85
:1001A80001F078FCDDF804E0DDE9022304B07047D3
:1001B80000F1340191E838009C46A6464CF8045DED
:1001C80090E8FF0FE54600BD90EC210B704700BF9B
:1001D80080EC210B704700BF90EC200B704700BFEC
:1001E80080EC200B704700BFD0EC200B704700BF9D
:1001F800C0EC200B704700BFF0EC0201F0EC0211DC
:10020800F0EC0221F0EC0231F0EC0241F0EC02518A
:10021800F0EC0261F0EC0271F0EC0281F0EC02917A
:10022800F0EC02A1F0EC02B1F0EC02C1F0EC02D16A
:10023800F0EC02E1F0EC02F1704700BFE0EC0201E3
:10024800E0EC0211E0EC0221E0EC0231E0EC0241CA
:10025800E0EC0251E0EC0261E0EC0271E0EC0281BA
:10026800E0EC0291E0EC02A1E0EC02B1E0EC02C1AA
:10027800E0EC02D1E0EC02E1E0EC02F1704700BFF3
:10028800B0FC0181B0FC0191B0FC01A1B0FC01B14E
:10029800704700BFA0FC0181A0FC0191A0FC01A156
:1002A800A0FC01B1704700BFEC4600B52DE9005035
:1002B8002DE9FF1F4FF000032DE90C0001A901F003
:1002C800A3FEDDF840E012B0704700BFEC4600B571
:1002D8002DE900502DE9FF1F4FF000032DE90C0018
:1002E80001A901F0CDFEDDF840E012B0704700BF73
:1002F800EC4600B52DE900502DE9FF1F4FF0000333
:100308002DE90C0001A901F0DDFEDDF840E012B096
:10031800704700BFEC4600B52DE900502DE9FF1FDE
:100328004FF000032DE90C0001AB01F0A1FEDDF850
:1003380040E012B0704700BFEC4600B52DE9005010
:100348002DE9FF1F4FF000032DE90C0001AA01F071
:100358000DFFDDF840E012B0704700BF704700BFE6
:10036800844641EA000313F003036DD1403A41D3B8
:1003780051F8043B40F8043B51F8043B40F8043B77
:1003880051F8043B40F8043B51F8043B40F8043B67
:1003980051F8043B40F8043B51F8043B40F8043B57
:1003A80051F8043B40F8043B51F8043B40F8043B47
:1003B80051F8043B40F8043B51F8043B40F8043B37
:1003C80051F8043B40F8043B51F8043B40F8043B27
:1003D80051F8043B40F8043B51F8043B40F8043B17
:1003E80051F8043B40F8043B51F8043B40F8043B07
:1003F800403ABDD2303211D351F8043B40F8043BA7
:1004080051F8043B40F8043B51F8043B40F8043BE6
:1004180051F8043B40F8043B103AEDD20C3205D3B6
:1004280051F8043B40F8043B043AF9D2043208D0AE
:10043800D2071CBF11F8013B00F8013B01D30B8820
:1004480003806046704700BF082A13D38B078DD0FE
:1004580010F003038AD0C3F10403D21ADB071CBFD0
:1004680011F8013B00F8013B80D331F8023B20F83A
:10047800023B7BE7043AD9D3013A11F8013B00F873
:10048800013BF9D20B7803704B7843708B788370FB
:100498006046704710B5054C237833B9044B13B147
:1004A8000448AFF300800123237010BD3C040020F2
:1004B80000000000BC2A000808B5034B1BB1034923
:1004C8000348AFF3008008BD00000000400400208E
:1004D800BC2A000830B589B000240394049405941C
:1004E800069407940094194B1A6B42F004021A639D
:1004F8001A6B02F004020092009A01941A6B42F0FF
:1005080001021A631A6B02F001020192019A029425
:100518001A6B42F008021A631B6B03F0080302937C
:10052800029B0B4D22464FF47041284600F076FBA3
:100538004FF470430393012304930594069403A98D
:10054800284600F079FA09B030BD00BF00380240F3
:10055800000C024072B6FEE700B587B00023019395
:10056800029303930493059300931A481A4A02606E
:1005780043607F228260FF22C2600361436183611E
:1005880000F061FF00BB00238DF804308DF80530C2
:100598008DF8063004930593012201A90D4800F057
:1005A800BFFF98B901228DF800208DF801208DF841
:1005B800022000238DF803306946064801F02FF821
:1005C80030B907B05DF804FBFFF7C4FFFFF7C2FFBF
:1005D800FFF7C0FF580400200028004008B50A486B
:1005E8000A4B03604FF4E133436000238360C36028
:1005F80003610C2242618361C36101F005F900B90E
:1006080008BDFFF7A7FF00BF7804002000100140D5
:1006180008B50A480A4B03604FF4E13343600023EE
:100628008360C36003610C2242618361C36101F08E
:10063800EBF800B908BDFFF78DFF00BFBC04002030
:100648000044004000B595B03022002108A801F010
:100658005FF900230393049305930693079301938B
:10066800204A116C41F080511164126C02F08052E2
:100678000192019A02931C4A116841F48041116069
:10068800126802F480420292029A0A220892012217
:100698000B9210210C910D9202220E920F930823B7
:1006A8001093A823119312920423139308A800F01F
:1006B800C5FA98B90F2303930223049300230593E3
:1006C8004FF4A05306934FF480530793052103A8D2
:1006D80000F002FD20B915B05DF804FBFFF73AFF02
:1006E800FFF738FF003802400070004008B500F0FE
:1006F80005F9FFF7A7FFFFF7EDFEFFF72DFFFFF75F
:100708006DFFFFF785FF4FF40051044800F08CFAA5
:100718004FF4FA7000F01EF9F5E700BF000C024034
:1007280082B0002100910B4B5A6C42F480425A640B
:100738005A6C02F480420092009A01911A6C42F0BD
:1007480080521A641B6C03F080530193019B02B022
:10075800704700BF0038024000B585B00023009301
:1007680001930293039302680B4B9A4202D005B09F
:100778005DF804FB022300934FF40073039368466B
:1007880000F080FD20B9054B0122C3F83C2EEEE7AE
:10079800FFF7E0FEF7E700BF0028004000004742EF
:1007A80000B58BB00023059306930793089309932C
:1007B8000368284A934205D0274A934226D00BB0B3
:1007C8005DF804FB00210191244B5A6C42F01002A1
:1007D8005A645A6C02F010020192019A02911A6B43
:1007E80042F001021A631B6B03F001030293029BA0
:1007F8004FF4C0630593022306930323089307234A
:10080800099305A9164800F017F9D8E700210391C4
:10081800124B1A6C42F400321A641A6C02F4003259
:100828000392039A04911A6B42F001021A631B6B3C
:1008380003F001030493049B0C23059302230693FE
:10084800032308930723099305A9054800F0F4F842
:10085800B5E700BF001001400044004000380240E6
:1008680000000240FEE7FEE7FEE7FEE7FEE770470E
:100878007047704708B500F05BF808BD0120704765
:1008880008B501F01BF8162303604FF0FF3008BDD0
:1008980008B54FF0FF31FFF7F3FFFEE7034AD2F840
:1008A800883043F47003C2F88830704700ED00E0E8
:1008B80010B504460E4B18784FF47A73B3FBF0F377
:1008C8000C4A1068B0FBF3F000F0A2F868B90F2CDE
:1008D80001D901200AE0002221464FF0FF3000F044
:1008E8005FF8054B1C60002000E0012010BD00BF30
:1008F80004000020000000200800002008B50B4B71
:100908001A6842F400721A601A6842F480621A6027
:100918001A6842F480721A60032000F02FF80F2042
:10092800FFF7C6FFFFF7FCFE002008BD003C0240B1
:10093800034A1168034B1B780B441360704700BFD0
:100948000005002004000020014B1868704700BF14
:100958000005002038B50446FFF7F6FF0546B4F158
:10096800FF3F02D0044B1B781C44FFF7EDFF401BF0
:10097800A042FAD338BD00BF04000020074AD3685C
:1009880023F4E0631B041B0C000200F4E060034343
:1009980043F0BF6343F40033D360704700ED00E0D9
:1009A80000B5194BDB68C3F30223C3F1070CBCF194
:1009B800040F28BF4FF0040C03F1040EBEF1060F1C
:1009C80018D9033B4FF0FF3E0EFA0CFC21EA0C014C
:1009D80099400EFA03F322EA0303194300280BDBBC
:1009E8000901C9B200F1604000F5614080F80013C8
:1009F8005DF804FB0023E5E700F00F000901C9B228
:100A0800024B1954F4E700BF00ED00E014ED00E0DC
:100A18000138B0F1807F0BD24FF0E0235861054ACE
:100A2800F02182F823100020986107221A6170478C
:100A38000120704700ED00E000230F2B00F2E48056
:100A480070B582B060E085685E000324B44025EA92
:100A58000405CC68B4402C438460456825EA020547
:100A68004C68C4F300129A402A4342605AE0DC08FA
:100A7800083450F8246003F0070295000F22AA40BA
:100A880026EA020E0A69AA4042EA0E0240F8242029
:100A98005CE0072200E0002202FA0EF22A43023448
:100AA8005A4D45F824205A4A14686FEA0C0224EA81
:100AB8000C054E6816F4803F01D04CEA0405544CEE
:100AC8002560646802EA04054E6816F4003F01D008
:100AD8004CEA04054E4C6560A46802EA04054E68B9
:100AE80016F4801F01D04CEA0405494CA560E4685F
:100AF80022404D6815F4001F01D04CEA0402444C12
:100B0800E26001330F2B7DD801229A400C6804EA79
:100B1800020C32EA0404F4D14C6804F00304013CEA
:100B2800012C90D94A6802F00302032A09D0C4684C
:100B38005D000322AA4024EA02048A68AA402243EC
:100B4800C2604A6802F00302022A90D004684FEAA1
:100B5800430E032202FA0EF224EA02044A6802F063
:100B6800030202FA0EF2224302604A6812F4403F7E
:100B7800C7D000220192274A546C44F4804454643C
:100B8800526C02F480420192019A9C08A51C1F4AEB
:100B980052F8255003F003024FEA820E0F2202FAA0
:100BA8000EF225EA02051C4A90423FF474AF02F5A2
:100BB800806290421AD002F58062904218D002F505
:100BC8008062904216D002F58062904214D002F5FD
:100BD8008062904212D002F58062904210D002F5F5
:100BE800806290423FF455AF082255E7012253E74F
:100BF800022251E703224FE704224DE705224BE783
:100C0800062249E702B070BD704700BF00380140B6
:100C1800003C014000380240000002400AB18161F6
:100C28007047090481617047436901EA030221EAB8
:100C3800030141EA0241816170470000002800F089
:100C4800E08170B582B00446036813F0010F3BD011
:100C58009F4B9B6803F00C03042B2CD09C4B9B6888
:100C680003F00C03082B21D06368B3F5803F4FD005
:100C7800B3F5A02F52D0964B1A6822F480321A602E
:100C88001A6822F480221A606368002B50D0FFF79C
:100C98005BFE05468E4B1B6813F4003F14D1FFF72B
:100CA80053FE401B6428F5D90320B1E1884B5B68EB
:100CB80013F4800FD8D0864B1B6813F4003F03D081
:100CC8006368002B00F09F81236813F0020F54D053
:100CD8007F4B9B6813F00C0F3ED07D4B9B6803F055
:100CE8000C03082B33D0E368002B68D0794B012222
:100CF8001A60FFF729FE0546754B1B6813F0020FB3
:100D080054D1FFF721FE401B0228F5D903207FE1CB
:100D18006F4A136843F480331360B5E76C4B1A6865
:100D280042F480221A601A6842F480321A60ABE7F3
:100D3800FFF70AFE0546664B1B6813F4003FC3D055
:100D4800FFF702FE401B6428F5D9032060E1604BE1
:100D58005B6813F4800FC6D15D4B1B6813F0020F5C
:100D680003D0E368012B40F05081594A136823F0FF
:100D7800F803216943EAC1031360236813F0080FDD
:100D880042D063696BB3534B0122C3F8802EFFF73F
:100D9800DBFD05464E4B5B6F13F0020F34D1FFF7B6
:100DA800D3FD401B0228F5D9032031E1484A1368D6
:100DB80023F0F803216943EAC1031360DDE7454BDB
:100DC80000221A60FFF7C0FD0546414B1B6813F06F
:100DD800020FD2D0FFF7B8FD401B0228F5D9032037
:100DE80016E13C4B0022C3F8802EFFF7ADFD054607
:100DF800374B5B6F13F0020F06D0FFF7A5FD401BC2
:100E08000228F5D9032003E1236813F0040F77D0F3
:100E18002F4B1B6C13F0805F33D1002301932C4BB5
:100E28001A6C42F080521A641B6C03F080530193D1
:100E3800019B0125284B1B6813F4807F23D0A368EE
:100E4800012B34D0052B38D0214B1A6F22F0010228
:100E58001A671A6F22F004021A67A368002B3DD0A4
:100E6800FFF772FD06461A4B1B6F13F0020F46D1AF
:100E7800FFF76AFD801B41F288339842F3D90320BB
:100E8800C6E00025D6E7144A136843F4807313605C
:100E9800FFF75AFD0646104B1B6813F4807FCED12E
:100EA800FFF752FD801B0228F5D90320B0E0084A5D
:100EB800136F43F001031367CFE7054B1A6F42F036
:100EC80004021A671A6F42F001021A67C5E700BFE9
:100ED800003802400000474200700040FFF734FD30
:100EE8000646524B1B6F13F0020F08D0FFF72CFD7C
:100EF800801B41F288339842F3D9032088E0EDB98A
:100F0800A369002B00F08380484A926802F00C0223
:100F1800082A51D0022B17D0454B00221A66FFF73A
:100F280013FD0446414B1B6813F0007F42D0FFF7C6
:100F38000BFD001B0228F5D9032069E03B4A136C1E
:100F480023F080531364DBE7394B00221A66FFF75E
:100F5800FBFC0546354B1B6813F0007F06D0FFF7F6
:100F6800F3FC401B0228F5D9032051E0E369226A0B
:100F78001343626A43EA8213A26A5208013A43EAB7
:100F88000243E26A43EA0263284A5360284B01227B
:100F98001A66FFF7D9FC0446244B1B6813F0007F40
:100FA80006D1FFF7D1FC001B0228F5D903202FE05A
:100FB80000202DE000202BE0012B2BD01B4B5B6881
:100FC80003F48001E269914226D103F03F02216ACD
:100FD8008A4223D1616A47F6C0721A40B2EB811F78
:100FE8001ED103F44031A26A5208013AB1EB024F14
:100FF80018D103F07063E26AB3EB026F14D10020DA
:1010080006E001207047012002E0012000E00020F6
:1010180002B070BD0120FBE70120F9E70120F7E7E6
:101028000120F5E70120F3E70120F1E7003802404D
:101038000000474208B5254B9B6803F00C03042BBE
:101048003FD0082B3FD1214B5A6802F03F025B6822
:1010580013F4800F12D01D4B5968C1F388111C4836
:101068000023A1FB0001FFF78BF8184B5B68C3F363
:10107800014301335B00B0FBF3F025E0134B5968E3
:10108800C1F3881C4FEA4C11B1EB0C006EEB0E0E4D
:101098004FEA8E1343EA90638101091A63EB0E034A
:1010A800DB0043EA5173C90011EB0C0C43F1000358
:1010B800990200234FEA8C2041EA9C51FFF760F81F
:1010C800D3E7034800E0034808BD00BF00380240EA
:1010D80040787D010024F400002800F09B8070B562
:1010E8000D4604464F4B1B6803F007038B4208D29A
:1010F800CBB24C4A1370136803F007038B4240F0DD
:101108008B80236813F0020F17D013F0040F04D05C
:10111800454A936843F4E0539360236813F0080F3B
:1011280004D0414A936843F4604393603E4A93680D
:1011380023F0F003A1680B439360236813F0010FB9
:1011480032D06368012B21D09A1E012A25D9364A4C
:10115800126812F0020F61D033498A6822F0030244
:1011680013438B60FFF7F0FB06462F4B9B6803F099
:101178000C036268B3EB820F16D0FFF7E5FB801B08
:1011880041F288339842F0D9032042E0264A126897
:1011980012F4003FE0D101203BE0234A126812F02C
:1011A800007FD9D1012034E01E4B1B6803F00703F0
:1011B800AB4207D9EAB21B4B1A701B6803F007034E
:1011C800AB422DD1236813F0040F06D0164A93685A
:1011D80023F4E053E1680B439360236813F0080F8E
:1011E80007D0114A936823F46043216943EAC10395
:1011F8009360FFF71FFF0C4B9B68C3F303130B4A65
:10120800D35CD8400A4B18600A4B1868FFF750FBAC
:10121800002070BD012070470120FAE70120F8E79F
:101228000120F6E7003C024000380240D42A0008BA
:101238000000002008000020014B1868704700BF1C
:101248000000002008B5FFF7F7FF044B9B68C3F3C5
:101258008223034AD35CD84008BD00BF003802404F
:10126800E42A000808B5FFF7E7FF044B9B68C3F3BF
:101278004233034AD35CD84008BD00BF003802405F
:10128800E42A000830B583B00446036813F0050F5C
:1012980006D1236813F0020F2ED1002003B030BD11
:1012A8004A4B00229A66FFF74FFB0546484B1B68DE
:1012B80013F0006F06D0FFF747FB431B022BF5D94D
:1012C8000320EBE76268A3681B0743EA8213404ADE
:1012D800C2F884303D4B01229A66FFF735FB05467C
:1012E8003B4B1B6813F0006FD3D1FFF72DFB431B5B
:1012F800022BF5D90320D1E700230193344B1A6C54
:1013080042F080521A641B6C03F080530193019BD6
:10131800304A136843F480731360FFF715FB0546E2
:101328002C4B1B6813F4807F06D1FFF70DFB431B82
:10133800022BF5D90320B1E7254B1B6F13F440733B
:1013480014D0E26802F440729A420FD0204B1A6F10
:1013580022F440721D490120C1F8400E0020C1F856
:10136800400E1A671B6F13F0010F13D1E36803F4E3
:101378004072B2F5407F1ED0154A936823F4F813E3
:10138800936013490B6FE268C2F30B0213430B67B8
:10139800002083E7FFF7D8FA05460D4B1B6F13F0C3
:1013A800020FE3D1FFF7D0FA401B41F2883398428D
:1013B800F3D9032072E706498A6822F4F81223F069
:1013C800704323F4407313438B60DAE7000047420D
:1013D800003802400070004038B504460268D368FF
:1013E80023F0A003D360FFF7AFFA05462368DB6854
:1013F80013F0200F07D1FFF7A7FA401BB0F57A7F4B
:10140800F4D9032000E0002038BD38B50368DA6855
:1014180012F0400F01D0002038BD04464FF0FF32D3
:10142800DA60FFF791FA05462368DB6813F0400F8E
:1014380007D1FFF789FA431BB3F57A7FF4D9032064
:10144800EAE70020E8E738B500285CD00446437F87
:10145800002B41D0022363772368CA225A6223688B
:1014680053225A622046FFF7D0FF0546002837D19D
:101478002268936823F4E00323F040039360216813
:101488008A686368206903436069034313438B6078
:101498002368E2681A6122681369A16843EA014374
:1014A80013612268D36823F08003D36023689B68A4
:1014B80013F0200F1BD02268136C23F480231364CD
:1014C8002268136CA1690B4313642368FF225A62D4
:1014D80001236377284638BD0377FFF73DF9B9E75D
:1014E8002368FF225A62042363770125F2E7204626
:1014F800FFF772FF0028DED02368FF225A62042318
:1015080063770125E6E70125E4E7002302E00133DC
:101518000A38C0B20928FAD81B01DBB21843704751
:10152800F8B5037F012B78D004460E4601230377D4
:1015380002234377002A47D103689B6813F0400FC2
:1015480001D10023CB703078FFF7DFFF05047078F6
:10155800FFF7DBFF45EA0025B078FFF7D6FF054324
:10156800F07845EA00452368CA225A622368532264
:101578005A622046FFF749FF0746002836D12368FC
:1015880005F07F3525F0FE451D602268936823F439
:101598008023936021688B68F268306902431343A3
:1015A8008B602268D36823F08003D36023689B682C
:1015B80013F0200F23D02368FF225A620123637798
:1015C800002323773846F8BD03689B6813F0400F63
:1015D80001D10023CB7035787078000240EA0540CD
:1015E800B5782843F57840EA0545BCE72368FF222B
:1015F8005A6204236377002323770127E2E7204612
:10160800FFF7EAFE0028D6D02368FF225A62042397
:101618006377002323770127D4E70227D2E770B541
:10162800037F012B66D004460E460123037702236D
:1016380043773AB94B7813F0100F03D003F0EF0358
:101648000A334B70002A33D1F078FFF75EFF0504A8
:101658007078FFF75AFF45EA0025B078FFF755FF85
:101668000543307845EA40352368CA225A62236820
:1016780053225A622046FFF7C8FE064618BB236865
:1016880025F07F4525F0C0055D602268D36823F00A
:101698008003D36023689B6813F0200F1CD0236855
:1016A800FF225A620123637700232377304670BDF7
:1016B800F5787078000240EA0540B5782843357817
:1016C80040EA4535D0E72368FF225A62042363774E
:1016D800002323770126E9E72046FFF77DFE00284F
:1016E800DDD02368FF225A6204236377002323771F
:1016F8000126DBE70226D9E738B5044602681369F4
:1017080023F44053C1680B43136183680269134390
:1017180042691343C2691A430168CB6823F416432C
:1017280023F00C031343CB600268536923F440731E
:1017380081690B4353610368314A934206D002F52D
:101748008062934202D0FFF77DFD01E0FFF78AFD3A
:10175800E369B3F5004F29D00021031849411B184C
:1017680041F10001C90041EA5371DB0018186368B0
:101778004FEA83024FEA937341F10001FEF700FD3F
:10178800204DA5FB00325109642303FB11031B0103
:101798003233A5FB03235B0903F0F00202EB0112CD
:1017A80003F00F03216813448B6038BD002302182F
:1017B80043EB0301121841F10001C90041EA5271DB
:1017C800D200101841F10001626892185B41FEF7DF
:1017D800D7FC0C4DA5FB00325109642303FB110310
:1017E800DB003233A5FB03235B095A0002F4F872CD
:1017F80002EB011203F00703216813448B60D4E75E
:10180800001001401F85EB5158B310B5044690F8FD
:101818003D300BB3242384F83D302268D36823F489
:101828000053D3602046FFF767FF2268136923F44B
:10183800904313612268536923F02A035361226895
:10184800D36843F40053D36000202064202384F835
:101858003D3084F83E3010BD80F83C30FEF7A0FFE4
:10186800D8E7012070470000DFF834D00D480E4952
:101878000E4A002302E0D458C4500433C4188C42E2
:10188800F9D30B4A0B4C002301E013600432A24247
:10189800FBD3FFF703F800F017F8FEF727FF7047B0
:1018A80000000220000000203C040020D82B000883
:1018B8003C0400200C050020FEE70000014B1868DE
:1018C800704700BF0C00002070B50D4E0D4D761B03
:1018D800B61006D0002455F8043B01349847A642B8
:1018E800F9D1094E094D761B01F0E4F8B61006D07F
:1018F800002455F8043B01349847A642F9D170BD3D
:10190800CC2B0008CC2B0008D42B0008CC2B0008CB
:10191800830730B548D0541E002A3FD0CAB20346C8
:1019280001E0013C3AD303F8012B9D07F9D1032CC0
:101938002DD9CDB245EA05250F2C45EA054536D9FE
:10194800A4F1100222F00F0C03F1200EE6444FEA36
:10195800121C03F1100242E9045542E90255103203
:101968007245F8D10CF1010214F00C0F03EB0212CE
:1019780004F00F0C13D0ACF1040323F00303043379
:10198800134442F8045B9342FBD10CF003042CB1DE
:10199800CAB21C4403F8012B9C42FBD130BD6446FB
:1019A8001346002CF4D1F9E703461446BFE71A465C
:1019B800A446E0E7024B13B1024800F01FB8704795
:1019C80000000000D119000838B5084B084D5B1B12
:1019D8009C1007D0043B1D44013C55F80439984736
:1019E800002CF9D1BDE8384001F06AB8D82B0008BE
:1019F800D42B0008704700BF704700BF0023014682
:101A08001A46184600F000B82DE9F047DFF880A024
:101A18000646DAF8000098460F469146FFF7EAFFB7
:101A28001A4B1B68D3F8484124B365681F2D26DC80
:101A38005EB96B1C0235DAF80000636044F8257063
:101A4800FFF7DAFF0020BDE8F08704EB85010123EA
:101A5800C1F88890D4F88821AB401A43022EC4F804
:101A68008821C1F80881E4D1D4F88C211343C4F843
:101A78008C31DEE703F5A674C3F84841D5E7DAF8F8
:101A88000000FFF7B9FF4FF0FF30DCE7EC2A000851
:101A9800380400202DE9F047089D04468E46002BA7
:101AA8004DD18A42944669D9B2FA82F252B101FA0A
:101AB80002F3C2F1200120FA01F10CFA02FC41EA1A
:101AC800030E94404FEA1C48210CBEFBF8F61FFA9F
:101AD8008CF708FB16E341EA034306FB07F199423A
:101AE8000AD91CEB030306F1FF3080F01F819942ED
:101AF80040F21C81023E63445B1AA4B2B3FBF8F0C7
:101B080008FB103344EA034400FB07F7A7420AD94D
:101B18001CEB040400F1FF3380F00A81A74240F275
:101B280007816444023840EA0640E41B00261DB1E0
:101B3800D4400023C5E900433146BDE8F0878B4215
:101B480009D9002D00F0EF800026C5E900013046D4
:101B58003146BDE8F087B3FA83F6002E4AD18B42AE
:101B680002D3824200F2F980841A61EB0303012058
:101B78009E46002DE0D0C5E9004EDDE702B9FFDE44
:101B8800B2FA82F2002A40F09280A1EB0C014FEAEF
:101B98001C471FFA8CFE0126200CB1FBF7F307FB4C
:101BA800131140EA01410EFB03F0884208D91CEBEF
:101BB800010103F1FF3802D2884200F2CB8043468C
:101BC800091AA4B2B1FBF7F007FB101144EA01446B
:101BD8000EFB00FEA64508D91CEB040400F1FF31FA
:101BE80002D2A64500F2BB800846A4EB0E0440EAE8
:101BF80003409CE7C6F12007B34022FA07FC4CEAF1
:101C0800030C20FA07F401FA06F31C43F9404FEAE3
:101C18001C4900FA06F3B1FBF9F8200C1FFA8CFEF8
:101C280009FB181140EA014108FB0EF0884202FA4C
:101C380006F20BD91CEB010108F1FF3A80F088800D
:101C4800884240F28580A8F102086144091AA4B2CA
:101C5800B1FBF9F009FB101144EA014100FB0EFE4B
:101C68008E4508D91CEB010100F1FF346CD28E457A
:101C78006AD90238614440EA0840A0FB0294A1EB0B
:101C88000E01A142C846A64656D353D05DB1B3EB68
:101C9800080261EB0E0101FA07F722FA06F3F14098
:101CA8001F43C5E9007100263146BDE8F087C2F13F
:101CB8002003D8400CFA02FC21FA03F391400143B7
:101CC8004FEA1C471FFA8CFEB3FBF7F007FB1036F0
:101CD8000B0C43EA064300FB0EF69E4204FA02F49C
:101CE80008D91CEB030300F1FF382FD29E422DD9EF
:101CF800023863449B1B89B2B3FBF7F607FB163324
:101D080041EA034106FB0EF38B4208D91CEB0101A3
:101D180006F1FF3816D28B4214D9023E6144C91A23
:101D280046EA004638E72E46284605E70646E3E633
:101D38001846F8E64B45A9D2B9EB020864EB0C0E3D
:101D48000138A3E74646EAE7204694E74046D1E74C
:101D5800D0467BE7023B614432E7304609E76444FA
:101D6800023842E703685A004CBF43F0004323F0AF
:101D780000431844704700BF2DE9F84329B34F1EAC
:101D8800044615463E464FF0000808EB060101EBF5
:101D9800D171491004EBC1094846FFF7E3FF034638
:101DA800C80008308F42204409D0AB4209D8FFF759
:101DB800D9FF0138A8420AD201F10108E5E7AB4290
:101DC80005D9884501D04E1EDFE74FF00009484687
:101DD800BDE8F883012807D0022807D0044B002863
:101DE8000CBF1846002070470248704702487047E9
:101DF800A1240008A9240008B124000830B5234B09
:101E080083B004468D1E3BB301A92846AFF300807A
:101E1800E8B101992A46FFF7AFFF0146B8B1FFF7CD
:101E2800A1FF4B68A064012B2CD0002B01F104000A
:101E380024DBFFF797FF0023C4E913030368002B93
:101E480011DBFFF78FFF2061002003B030BD0023B6
:101E58000920236103B030BD0D4B0E49C91AC910C2
:101E680018460191D6E7C3F30360FFF7B3FF0028D4
:101E7800206114BF0020092003B030BD0123C4E94C
:101E88001303DBE7002323610520DEE700000000E1
:101E9800FC2A0008CC2B00080368DA0710B50446B2
:101EA80006D49B0700F1480009D5FEF795F9236889
:101EB800590709D51A070ED5DB0613D510BDFEF74D
:101EC80083F923685907F5D404F1D000FEF78CF99B
:101ED80023681A07F0D404F5A870FEF78DF9236873
:101EE800DB06EBD404F5E870BDE81040FEF7C8B98E
:101EF8000346006800B11844704700BF704700BF30
:101F080070B504460E46316C2046FFF777FF05464C
:101F180088B9326C626123693246214601209847AC
:101F28000828F0D0072806D12846316CFFF7E6FFCD
:101F3800301DFEF73DF900F06FFD00BF2DE9F047B9
:101F48000D1DD0F80C80D0F81890074614460FCD18
:101F5800ADF5727D0DF10C0CACE80F000FCDACE8BF
:101F68000F000FCDACE80F0095E80F0002AE4FF060
:101F7800000E8CE80F00C6F800E020E0336C7B61AF
:101F88004FF4F07231467AA8FEF7EAF93B697AAA6B
:101F9800394650469847889B73642146CDE90069C5
:101FA80005463B463A460120C0470446E0B94FF48F
:101FB800F0727AA93046FEF7D3F9082D1AD1316CA0
:101FC8003846FFF71BFF09345FFA84FA05460028F4
:101FD800D4D0B36B73643A46CDE900693B464AF006
:101FE80010010120C04700B1092528460DF5727D72
:101FF800BDE8F087072DF7D12046316CFFF77EFF4B
:1020080003A8FEF7D5F800BFF0B5CB6B0B6401F160
:10201800040C0E460546BCE80F00F9B001AC0FC42D
:10202800BCE80F000FC4BCE80F000FC49CE80F0009
:102038004FF0FF3784E80F00009706E02B696A46E7
:10204800294698470828044608D110992846FFF7DA
:10205800D5FE0028F2D0092079B0F0BD6846FFF718
:102068001BFF062CF7D131462846FFF749FF00BF72
:10207800C160D96B8261196400221946FFF75EBFFF
:1020880070B5C66843690B64AEB903690A4604466D
:102098000D46014602209847072805D008280FD189
:1020A80029462046FFF72CFF3046296CFFF726FF0C
:1020B800281DFEF77DF80122FFF740FF00F0ACFC79
:1020C80000F0AAFCC26822B1CA6B0A640022FFF7BA
:1020D80035BFFFF799BF00BF012912D009D873B9DE
:1020E8000F2A0CD800EB820218465368009A136036
:1020F80070470339012994BF01200220704702204C
:1021080070470846704700BF00B585B00A460023EF
:1021180003A900911946FFF7DFFF039805B05DF8A2
:1021280004FB00BF012912D009D873B90F2A0CD8B3
:1021380000EB8200009A1268426018467047033923
:10214800012994BF012002207047022070470846E9
:10215800704700BF10B584B0002303AC039200940D
:102168000A461946FFF7DEFF04B010BD70B5D36B01
:10217800136402F1040C05460C46BCE80F00ADF5EB
:102188000E7D0DF15C0EAEE80F00BCE80F00AEE866
:102198000F00BCE80F00AEE80F009CE80F004FF0FE
:1021A800FF368EE80F00169610E0FFF7D3FF2146A2
:1021B80016A8A847034616AA6946082083B9049BAF
:1021C8009847052806460CD0092809D0269968465C
:1021D800FFF714FE03466A460C2116A8002BE4D02C
:1021E800092616A8FFF758FE30460DF50E7D70BD7E
:1021F8002DE9F04FCC6C89B01E4654F8043B069488
:102208000D46174600F00308002E79D01A0C1B045F
:1022180005938DF81D200223D2B204EB82048DF8B9
:102228001C302B6DB8F1020F08BFAC6B13F0010323
:102238000CD005A9384600F099FA18B9082009B059
:10224800BDE8F08F092009B0BDE8F08FD4F800A0F0
:10225800BAF1000FEDD0019300F008030293022EAB
:102268004AD0B4F800A0B4F802900434AB6C29F05A
:10227800010B0F2138469B44FFF746FF834539D8A9
:102288002AF001039B44834594BF002001204FEAB4
:10229800490303F002030AF0010A43EA0A03012B87
:1022A80049D0022B32D0002BCCD1B8F1000F02D08C
:1022B800002840F0CD800434D4F800A0BAF1000F13
:1022C800CDD105A9384600F051FA0028BAD1019BB2
:1022D800002BB3D00F213846FFF716FF0E21024618
:1022E8003846FFF737FF38466A4A0F21FFF732FFB3
:1022F8000720A8E70020CAE7D4F804900834B5E717
:102308001B0205930323ADF81C308AE7236823F0EA
:10231800004BB8F1000F45D128B1029A002A5CD0D1
:10232800BBF1000F74D0002B00DA04340BF1010B61
:1023380004EB8B04C0E7B8F1000F19D1B0B16368A2
:102348002268991C4FEAD2723FF47CAF05F158011C
:102358000133049100F09080201DFFF7C9FD04AB04
:1023680001462846AFF3008000285BD10834A3E774
:102378000D213846D5F82090FFF7C6FE8145F5D1E6
:10238800AB6A9C42F2D12046FFF7ECFC0F210246D3
:102398003846FFF7DFFE38462A460021FFF7DAFE07
:1023A800072050E70D213846D5F82090FFF7ACFEFE
:1023B800814501D02368B6E7AB6A9C42FAD1042371
:1023C8000022C5E90B23E318C5F828B06B6323681E
:1023D800002B59DB01230193A8E705F15803CDF839
:1023E8000C8004F1040AB04691461E460EE05046A1
:1023F8000496FFF77DFD0022014604AB284609F14B
:1024080001090AF1040AAFF30080E0B9D945EED119
:102418000D213846FFF778FE049BAC62C5E9080336
:10242800062010E781460D213846FFF76DFEB9F109
:10243800020F286225D12B46049A43F82C2F6B6291
:10244800AC620620FFE646462368DDF80C806AE7A2
:102458002046FFF787FC04340246AC63284614463E
:10246800AFF3008000283FF4EDAE384622460F2136
:10247800FFF770FE0720E6E60D213846FFF744FE19
:102488002862049B6B62DBE70BF1010004EB800020
:102498007AE700BF000000000023FFF7A9BE00BFD5
:1024A8000123FFF7A5BE00BF0223FFF7A1BE00BFAF
:1024B8002DE9F0430646C3B015461C46042900F230
:1024C800BF80DFE801F09E57BD2D0300002C40F0CF
:1024D800B780102A00F2B4800368D80600F1F980AA
:1024E80020AF3846FDF7D6FEB46B394600234FF0CF
:1024F800010C0CFA03F22A42204603F1010303D02F
:1025080050F8042B0A600446042B01F10401F0D1B1
:102518003846B463FDF7B4FE002043B0BDE8F0834D
:10252800032C40F08D8094B204EB1243102B4FEA39
:10253800124500F2858003681F0700F1D28020AFA2
:102548003846FDF77BFEB26B07EBC50154B10B466D
:10255800D01A01EBC401E4001D5843F8045B8B4218
:10256800FAD122443846B263FDF746FE002043B054
:10257800BDE8F083012C4FEA124895B25CD0052CD7
:102588005ED108EB0509B9F1200F59D8B8F10F0F42
:1025980079D9A946002D40F08A80B36B6DB320AF7E
:1025A8004FF0000907EBC807043F03EBC50553F8D4
:1025B800041B47F8041FAB42F9D1B9F1000F0FD043
:1025C8006F464146102938BF102107EBC1018439F5
:1025D80003EBC90553F8040B41F8040FAB42F9D1DA
:1025E800012C00F08680B8F10F0FB56347D9B9F117
:1025F800000F02D06846FDF7F7FD002043B0BDE8A4
:10260800F083ECB9806B23461FFA82FC0124371D46
:1026180004FA03F212EA0C0F014604D051F8042B15
:1026280047F8232008460133102BF1D115F4005543
:10263800E3D1B063284604E008EB0503102B03D967
:10264800022043B0BDE8F083B8F10F0FF8D8336823
:10265800DA0706D5304623F0030340F8483BFDF778
:10266800B7FD20AF3846FDF7B3FDB36B002D97D10A
:102678001D460435B5633846FDF7A6FDBDE720A81D
:10268800FDF7AAFDB3E7B9F1100F40D9A9F1100978
:102698003368D90708D523F00103304643F0020315
:1026A80040F8483BFDF79CFDB9F1000F32D0336884
:1026B8005A0720D4B8F10F0F25D96F463846C8F10C
:1026C8001005FDF795FD002DB36B7FF77AAF20AFAE
:1026D80068E723F01003336006F5E870FDF7DAFDCC
:1026E800FEE623F00803036000F5A870FDF7A6FDD9
:1026F80025E720AFBDE7304623F0040340F8D03B80
:10270800FDF776FDD6E720A8FDF76AFDD5E74FF07F
:102718000009BDE7B8F10F0F3FF63FAF20AF3846CD
:10272800FDF75EFDB36B002D7FF43AAF3846FDF739
:1027380053FD62E7027A03467AB9427AA2B1416848
:10274800013A10B44272086803220C1D1A72020280
:102758005C60000E10BC1A6070470068013A1A727B
:1027680002021A60000E7047B02070472DE9F0434E
:10277800054685B00E464FF000083046FFF7DAFFF1
:10278800B028044600F0BA80070620D500F0F00310
:10279800802B4DD0902B36D0A02B60D0B02B74D08E
:1027A800C02B00F08B8000F0F803D02B0BD100F089
:1027B80007020132052342F4002201212846FFF7CF
:1027C80077FE0028D9D0092005B0BDE8F083830042
:1027D800DBB21F1D0DF10C0900231946CDF800903E
:1027E8000D222846FFF778FC039BCDF80090600681
:1027F8004CBFDF1BFF1800230D22194628460397FC
:10280800FFF790FCB9E700F00D030D2BDBD003AF09
:10281800002300F00F02194600972846FFF75CFCDA
:10282800002300970D2219462846FFF77BFCA4E7F2
:102838003046FFF77FFF24022043B0F5004FC2D097
:1028480004010023A2B219462846FFF731FE0028EA
:10285800B9D114F4004F18BF4FF001088DE7C243F7
:1028680002F007034FF47F621A41010702F47F6206
:102878004FF0000348BF42F4804219462846FFF74C
:1028880017FE00283FF479AF9DE7B1283BD0B22866
:1028980000F09380B32841D000F0FC03B42B92D011
:1028A80000F007020132012342F4002219462846AB
:1028B800FFF7FEFD00283FF460AF84E7C6284AD042
:1028C800C72854D000F0F803C02B63D0C82868D0BC
:1028D800C9287FF478AF3046FFF72CFF020300F0D9
:1028E8000F0002F47022013002430121052328461B
:1028F800FFF7DEFD00283FF440AF64E7B8F1000FB2
:1029080018D0002060E73046FFF714FF0246002881
:102918003FF459AF10F0F003C8D054E73046FFF742
:1029280009FF020300F00F03013302F470221A4377
:102938000123BBE703AC43460E22414600942846D8
:10294800FFF7CAFB009443460F2241462846FFF78B
:10295800E9FB404638E73046FFF7ECFE020300F09B
:102968000F03013302F470221A4303239EE7304613
:10297800FFF7E0FE024600283FF425AF10F0F00311
:102988007FF421AF04212846FFF792FD00283FF489
:10299800F4AE18E700F00F020132032342F42022BC
:1029A80084E73046FFF7C6FE00F0F00200F00F03A0
:1029B8001032013343EA023297E700230DF10C0984
:1029C8000D221946CDF800902846FFF785FB3046C2
:1029D800FFF7B0FE02064FF002040CD5039B00F08F
:1029E8007F00A040184403903046FFF7A3FE03067B
:1029F80004F10704F2D4039BCDF8009000F07F02A5
:102A0800A24003F501731A440023039219460D22CC
:102A18002846FFF787FBB0E608B5062000F004F863
:102A28000120FDF735FF00BF38B5154B1F281D687D
:102A380020D8D5F8DC22044662B152F820304BB1D8
:102A4800012B15D0591C0FD0002542F8205098476B
:102A5800284638BD284600F02BF82246014628466D
:102A6800BDE8384000F00EB816232B60012038BDB1
:102A7800002038BD16232B604FF0FF3038BD00BF53
:102A88000C00002070B50C46084D03460026204671
:102A980011461C462E60FDF7F3FE431C00D070BDA6
:102AA8002B68002BFBD0236070BD00BF08050020F9
:102AB800FDF7E4BEF8B500BFF8BC08BC9E467047F9
:0C2AC800F8B500BFF8BC08BC9E46704783
:102AD40000000000000000000102030406070809CA
:0C2AE400000000000102030410000020AC
:0C2AF00008B10181B0B0008400000000BB
:102AFC00C8EDFF7F01000000CCEDFF7FB0B0AA80D5
:102B0C000CEEFF7F01000000BCEEFF7FA908B18036
:102B1C00E0EEFF7F01000000ECEEFF7FB0B0AE8076
:102B2C0070EFFF7F01000000D0F2FF7FB0A90280A0
:102B3C0064F3FF7FB0B0A880B4F3FF7F0100000006
:102B4C00BCF3FF7FB0B0AA80F0F3FF7FAE71B28010
:102B5C00B4F4FF7FAB3F388014F5FF7F0100000019
:102B6C001CF5FF7FB0B0AA8058F5FF7F0100000074
:102B7C00F8F5FF7FAA0DB28074F6FF7FB0AF088026
:102B8C0014F9FF7F0100000024F9FF7FAD3F0280A4
:102B9C00A0FBFF7F01000000D0FBFF7FB0AD0480E5
:102BAC0074FEFF7F40FFFF7F7CFEFF7FA908B18092
:102BBC00D0FEFF7FB0B0AA80F4FEFF7F01000000C2
:082BCC00BD190008C104000856
:042BD4009D04000854
:102BD8000024F40001000000100000001000002094
:102BE80000000000FC02002064030020CC03002049
:102BF80000000000000000000000000000000000CD
:102C080000000000000000000000000000000000BC
:102C180000000000000000000000000000000000AC
:102C2800000000000000000000000000000000009C
:102C3800000000000000000000000000000000008C
:102C4800000000000000000000000000000000007C
:102C5800000000000000000000000000000000006C
:102C6800000000000000000000000000000000005C
:102C7800000000000000000000000000000000004C
:102C8800000000000000000001000000000000003B
:102C98000E33CDAB34126DE6ECDE05000B00000000
:102CA800000000000000000000000000000000001C
:102CB800000000000000000000000000000000000C
:102CC80000000000000000000000000000000000FC
:102CD80000000000000000000000000000000000EC
:0C30080000000000000000000405002093
:040000050800187166
:00000001FF
